{
  "contractName": "ISA",
  "abi": [
    {
      "inputs": [
        {
          "internalType": "contract ISuperfluid",
          "name": "host",
          "type": "address"
        },
        {
          "internalType": "contract IConstantFlowAgreementV1",
          "name": "cfa",
          "type": "address"
        },
        {
          "internalType": "contract ISuperToken",
          "name": "acceptedToken",
          "type": "address"
        },
        {
          "internalType": "address payable",
          "name": "student",
          "type": "address"
        },
        {
          "internalType": "address",
          "name": "lender",
          "type": "address"
        },
        {
          "internalType": "address payable",
          "name": "institute",
          "type": "address"
        },
        {
          "internalType": "int96",
          "name": "thresholdSalary",
          "type": "int96"
        },
        {
          "internalType": "uint256",
          "name": "totalTime",
          "type": "uint256"
        },
        {
          "internalType": "int96",
          "name": "rate",
          "type": "int96"
        }
      ],
      "stateMutability": "nonpayable",
      "type": "constructor"
    },
    {
      "anonymous": false,
      "inputs": [
        {
          "indexed": false,
          "internalType": "address",
          "name": "student",
          "type": "address"
        }
      ],
      "name": "studentChanged",
      "type": "event"
    },
    {
      "inputs": [
        {
          "internalType": "contract ISuperToken",
          "name": "",
          "type": "address"
        },
        {
          "internalType": "address",
          "name": "",
          "type": "address"
        },
        {
          "internalType": "bytes32",
          "name": "",
          "type": "bytes32"
        },
        {
          "internalType": "bytes",
          "name": "",
          "type": "bytes"
        },
        {
          "internalType": "bytes",
          "name": "",
          "type": "bytes"
        }
      ],
      "name": "beforeAgreementCreated",
      "outputs": [
        {
          "internalType": "bytes",
          "name": "",
          "type": "bytes"
        }
      ],
      "stateMutability": "view",
      "type": "function",
      "constant": true
    },
    {
      "inputs": [
        {
          "internalType": "contract ISuperToken",
          "name": "",
          "type": "address"
        },
        {
          "internalType": "address",
          "name": "",
          "type": "address"
        },
        {
          "internalType": "bytes32",
          "name": "",
          "type": "bytes32"
        },
        {
          "internalType": "bytes",
          "name": "",
          "type": "bytes"
        },
        {
          "internalType": "bytes",
          "name": "",
          "type": "bytes"
        }
      ],
      "name": "beforeAgreementTerminated",
      "outputs": [
        {
          "internalType": "bytes",
          "name": "",
          "type": "bytes"
        }
      ],
      "stateMutability": "view",
      "type": "function",
      "constant": true
    },
    {
      "inputs": [
        {
          "internalType": "contract ISuperToken",
          "name": "",
          "type": "address"
        },
        {
          "internalType": "address",
          "name": "",
          "type": "address"
        },
        {
          "internalType": "bytes32",
          "name": "",
          "type": "bytes32"
        },
        {
          "internalType": "bytes",
          "name": "",
          "type": "bytes"
        },
        {
          "internalType": "bytes",
          "name": "",
          "type": "bytes"
        }
      ],
      "name": "beforeAgreementUpdated",
      "outputs": [
        {
          "internalType": "bytes",
          "name": "",
          "type": "bytes"
        }
      ],
      "stateMutability": "view",
      "type": "function",
      "constant": true
    },
    {
      "stateMutability": "payable",
      "type": "receive",
      "payable": true
    },
    {
      "inputs": [],
      "name": "contractParties",
      "outputs": [
        {
          "internalType": "address",
          "name": "student",
          "type": "address"
        },
        {
          "internalType": "address",
          "name": "lender",
          "type": "address"
        },
        {
          "internalType": "address",
          "name": "institute",
          "type": "address"
        }
      ],
      "stateMutability": "view",
      "type": "function",
      "constant": true
    },
    {
      "inputs": [],
      "name": "contractRates",
      "outputs": [
        {
          "internalType": "int96",
          "name": "distributionRate",
          "type": "int96"
        },
        {
          "internalType": "int96",
          "name": "thresholdSalary",
          "type": "int96"
        },
        {
          "internalType": "contract ISuperToken",
          "name": "acceptedToken",
          "type": "address"
        }
      ],
      "stateMutability": "view",
      "type": "function",
      "constant": true
    },
    {
      "inputs": [],
      "name": "contractFlows",
      "outputs": [
        {
          "internalType": "int96",
          "name": "studentflowRate",
          "type": "int96"
        },
        {
          "internalType": "int96",
          "name": "lenderflowRate",
          "type": "int96"
        },
        {
          "internalType": "int96",
          "name": "netFlowISA",
          "type": "int96"
        }
      ],
      "stateMutability": "view",
      "type": "function",
      "constant": true
    },
    {
      "inputs": [],
      "name": "contractBalances",
      "outputs": [
        {
          "internalType": "uint256",
          "name": "totalTime",
          "type": "uint256"
        },
        {
          "internalType": "uint256",
          "name": "timeUnitPaid",
          "type": "uint256"
        },
        {
          "internalType": "int96",
          "name": "currentStudentRate",
          "type": "int96"
        },
        {
          "internalType": "int96",
          "name": "currentLenderRate",
          "type": "int96"
        }
      ],
      "stateMutability": "view",
      "type": "function",
      "constant": true
    },
    {
      "inputs": [],
      "name": "currentState",
      "outputs": [
        {
          "internalType": "uint256",
          "name": "startTimeStudent",
          "type": "uint256"
        },
        {
          "internalType": "uint256",
          "name": "startTimeLender",
          "type": "uint256"
        },
        {
          "internalType": "address",
          "name": "student",
          "type": "address"
        },
        {
          "internalType": "address",
          "name": "lender",
          "type": "address"
        },
        {
          "internalType": "int96",
          "name": "studentflowRate",
          "type": "int96"
        },
        {
          "internalType": "int96",
          "name": "lenderflowRate",
          "type": "int96"
        },
        {
          "internalType": "int96",
          "name": "netFlowISA",
          "type": "int96"
        },
        {
          "internalType": "int96",
          "name": "distributionRate",
          "type": "int96"
        },
        {
          "internalType": "int96",
          "name": "thresholdSalary",
          "type": "int96"
        },
        {
          "internalType": "address",
          "name": "institute",
          "type": "address"
        },
        {
          "internalType": "uint256",
          "name": "balance",
          "type": "uint256"
        },
        {
          "internalType": "bool",
          "name": "isTradeable",
          "type": "bool"
        },
        {
          "internalType": "uint256",
          "name": "totalTime",
          "type": "uint256"
        },
        {
          "internalType": "uint256",
          "name": "timeUnitPaid",
          "type": "uint256"
        }
      ],
      "stateMutability": "view",
      "type": "function",
      "constant": true
    },
    {
      "inputs": [],
      "name": "approve",
      "outputs": [],
      "stateMutability": "nonpayable",
      "type": "function"
    },
    {
      "inputs": [],
      "name": "withdraw",
      "outputs": [],
      "stateMutability": "payable",
      "type": "function",
      "payable": true
    },
    {
      "inputs": [
        {
          "internalType": "bool",
          "name": "isTradeable",
          "type": "bool"
        }
      ],
      "name": "setTradeable",
      "outputs": [],
      "stateMutability": "nonpayable",
      "type": "function"
    },
    {
      "inputs": [
        {
          "internalType": "address payable",
          "name": "newstudent",
          "type": "address"
        }
      ],
      "name": "changeReciever",
      "outputs": [],
      "stateMutability": "nonpayable",
      "type": "function"
    },
    {
      "inputs": [
        {
          "internalType": "contract ISuperToken",
          "name": "_superToken",
          "type": "address"
        },
        {
          "internalType": "address",
          "name": "_agreementClass",
          "type": "address"
        },
        {
          "internalType": "bytes32",
          "name": "",
          "type": "bytes32"
        },
        {
          "internalType": "bytes",
          "name": "",
          "type": "bytes"
        },
        {
          "internalType": "bytes",
          "name": "",
          "type": "bytes"
        },
        {
          "internalType": "bytes",
          "name": "_ctx",
          "type": "bytes"
        }
      ],
      "name": "afterAgreementCreated",
      "outputs": [
        {
          "internalType": "bytes",
          "name": "newCtx",
          "type": "bytes"
        }
      ],
      "stateMutability": "nonpayable",
      "type": "function"
    },
    {
      "inputs": [
        {
          "internalType": "contract ISuperToken",
          "name": "_superToken",
          "type": "address"
        },
        {
          "internalType": "address",
          "name": "_agreementClass",
          "type": "address"
        },
        {
          "internalType": "bytes32",
          "name": "",
          "type": "bytes32"
        },
        {
          "internalType": "bytes",
          "name": "",
          "type": "bytes"
        },
        {
          "internalType": "bytes",
          "name": "",
          "type": "bytes"
        },
        {
          "internalType": "bytes",
          "name": "_ctx",
          "type": "bytes"
        }
      ],
      "name": "afterAgreementUpdated",
      "outputs": [
        {
          "internalType": "bytes",
          "name": "newCtx",
          "type": "bytes"
        }
      ],
      "stateMutability": "nonpayable",
      "type": "function"
    },
    {
      "inputs": [
        {
          "internalType": "contract ISuperToken",
          "name": "_superToken",
          "type": "address"
        },
        {
          "internalType": "address",
          "name": "_agreementClass",
          "type": "address"
        },
        {
          "internalType": "bytes32",
          "name": "",
          "type": "bytes32"
        },
        {
          "internalType": "bytes",
          "name": "",
          "type": "bytes"
        },
        {
          "internalType": "bytes",
          "name": "",
          "type": "bytes"
        },
        {
          "internalType": "bytes",
          "name": "_ctx",
          "type": "bytes"
        }
      ],
      "name": "afterAgreementTerminated",
      "outputs": [
        {
          "internalType": "bytes",
          "name": "newCtx",
          "type": "bytes"
        }
      ],
      "stateMutability": "nonpayable",
      "type": "function"
    }
  ],
  "bytecode": "0x60806040523480156200001157600080fd5b5060405162005be438038062005be483398181016040526101208110156200003857600080fd5b81019080805190602001909291908051906020019092919080519060200190929190805190602001909291908051906020019092919080519060200190929190805190602001909291908051906020019092919080519060200190929190505050600073ffffffffffffffffffffffffffffffffffffffff168973ffffffffffffffffffffffffffffffffffffffff161415620000d157fe5b600073ffffffffffffffffffffffffffffffffffffffff168873ffffffffffffffffffffffffffffffffffffffff1614156200010957fe5b600073ffffffffffffffffffffffffffffffffffffffff168773ffffffffffffffffffffffffffffffffffffffff1614156200014157fe5b600073ffffffffffffffffffffffffffffffffffffffff168673ffffffffffffffffffffffffffffffffffffffff1614156200017957fe5b600073ffffffffffffffffffffffffffffffffffffffff168573ffffffffffffffffffffffffffffffffffffffff161415620001b157fe5b600a81600b0b138015620001c85750605081600b0b125b620001cf57fe5b600082118015620001e457506303c267008211155b620001eb57fe5b886000806101000a81548173ffffffffffffffffffffffffffffffffffffffff021916908373ffffffffffffffffffffffffffffffffffffffff16021790555087600160006101000a81548173ffffffffffffffffffffffffffffffffffffffff021916908373ffffffffffffffffffffffffffffffffffffffff16021790555086600260006101000a81548173ffffffffffffffffffffffffffffffffffffffff021916908373ffffffffffffffffffffffffffffffffffffffff16021790555085600360006101000a81548173ffffffffffffffffffffffffffffffffffffffff021916908373ffffffffffffffffffffffffffffffffffffffff16021790555084600460006101000a81548173ffffffffffffffffffffffffffffffffffffffff021916908373ffffffffffffffffffffffffffffffffffffffff16021790555080600560146101000a8154816bffffffffffffffffffffffff0219169083600b0b6bffffffffffffffffffffffff16021790555083600560006101000a81548173ffffffffffffffffffffffffffffffffffffffff021916908373ffffffffffffffffffffffffffffffffffffffff16021790555082600760006101000a8154816bffffffffffffffffffffffff0219169083600b0b6bffffffffffffffffffffffff16021790555060006007600c6101000a81548160ff02191690831515021790555060006009819055508160088190555060006410000000006404000000006401000000006001171717905060008054906101000a900473ffffffffffffffffffffffffffffffffffffffff1673ffffffffffffffffffffffffffffffffffffffff1663ad3915c8826040518263ffffffff1660e01b815260040180828152602001915050600060405180830381600087803b1580156200049157600080fd5b505af1158015620004a6573d6000803e3d6000fd5b505050505050505050505050505061572080620004c46000396000f3fe6080604052600436106100ec5760003560e01c806353c11f991161008a5780637f002ffe116100595780637f002ffe14610b48578063884d1f4014610b85578063d86ed3e514610d23578063ea26617814610f16576101f9565b806353c11f991461072057806355cf2afe146109135780635e3c3274146109555780635f9e7d77146109aa576101f9565b8063230dbd29116100c6578063230dbd291461033457806330d9c915146105275780633ccfd60b146106c557806343820520146106cf576101f9565b80630c3f6acf146101fe57806312424e3f146102d75780632163885a146102ee576101f9565b366101f957600460009054906101000a900473ffffffffffffffffffffffffffffffffffffffff1673ffffffffffffffffffffffffffffffffffffffff163373ffffffffffffffffffffffffffffffffffffffff1614610197576040517f08c379a000000000000000000000000000000000000000000000000000000000815260040180806020018281038252602b8152602001806155ae602b913960400191505060405180910390fd5b670de0b6b3a764000034146101f7576040517f08c379a000000000000000000000000000000000000000000000000000000000815260040180806020018281038252602981526020018061566f6029913960400191505060405180910390fd5b005b600080fd5b34801561020a57600080fd5b50610213610f91565b604051808f81526020018e81526020018d73ffffffffffffffffffffffffffffffffffffffff1681526020018c73ffffffffffffffffffffffffffffffffffffffff1681526020018b600b0b81526020018a600b0b815260200189600b0b815260200188600b0b815260200187600b0b81526020018673ffffffffffffffffffffffffffffffffffffffff16815260200185815260200184151581526020018381526020018281526020019e50505050505050505050505050505060405180910390f35b3480156102e357600080fd5b506102ec61149f565b005b3480156102fa57600080fd5b506103036115c1565b6040518085815260200184815260200183600b0b815260200182600b0b815260200194505050505060405180910390f35b34801561034057600080fd5b506104ac600480360360c081101561035757600080fd5b81019080803573ffffffffffffffffffffffffffffffffffffffff169060200190929190803573ffffffffffffffffffffffffffffffffffffffff16906020019092919080359060200190929190803590602001906401000000008111156103be57600080fd5b8201836020820111156103d057600080fd5b803590602001918460018302840111640100000000831117156103f257600080fd5b90919293919293908035906020019064010000000081111561041357600080fd5b82018360208201111561042557600080fd5b8035906020019184600183028401116401000000008311171561044757600080fd5b90919293919293908035906020019064010000000081111561046857600080fd5b82018360208201111561047a57600080fd5b8035906020019184600183028401116401000000008311171561049c57600080fd5b90919293919293905050506115fb565b6040518080602001828103825283818151815260200191508051906020019080838360005b838110156104ec5780820151818401526020810190506104d1565b50505050905090810190601f1680156105195780820380516001836020036101000a031916815260200191505b509250505060405180910390f35b34801561053357600080fd5b5061064a600480360360a081101561054a57600080fd5b81019080803573ffffffffffffffffffffffffffffffffffffffff169060200190929190803573ffffffffffffffffffffffffffffffffffffffff16906020019092919080359060200190929190803590602001906401000000008111156105b157600080fd5b8201836020820111156105c357600080fd5b803590602001918460018302840111640100000000831117156105e557600080fd5b90919293919293908035906020019064010000000081111561060657600080fd5b82018360208201111561061857600080fd5b8035906020019184600183028401116401000000008311171561063a57600080fd5b90919293919293905050506117d1565b6040518080602001828103825283818151815260200191508051906020019080838360005b8381101561068a57808201518184015260208101905061066f565b50505050905090810190601f1680156106b75780820380516001836020036101000a031916815260200191505b509250505060405180910390f35b6106cd611824565b005b3480156106db57600080fd5b5061071e600480360360208110156106f257600080fd5b81019080803573ffffffffffffffffffffffffffffffffffffffff1690602001909291905050506119df565b005b34801561072c57600080fd5b50610898600480360360c081101561074357600080fd5b81019080803573ffffffffffffffffffffffffffffffffffffffff169060200190929190803573ffffffffffffffffffffffffffffffffffffffff16906020019092919080359060200190929190803590602001906401000000008111156107aa57600080fd5b8201836020820111156107bc57600080fd5b803590602001918460018302840111640100000000831117156107de57600080fd5b9091929391929390803590602001906401000000008111156107ff57600080fd5b82018360208201111561081157600080fd5b8035906020019184600183028401116401000000008311171561083357600080fd5b90919293919293908035906020019064010000000081111561085457600080fd5b82018360208201111561086657600080fd5b8035906020019184600183028401116401000000008311171561088857600080fd5b9091929391929390505050612562565b6040518080602001828103825283818151815260200191508051906020019080838360005b838110156108d85780820151818401526020810190506108bd565b50505050905090810190601f1680156109055780820380516001836020036101000a031916815260200191505b509250505060405180910390f35b34801561091f57600080fd5b506109286126ab565b6040518084600b0b815260200183600b0b815260200182600b0b8152602001935050505060405180910390f35b34801561096157600080fd5b5061096a612a95565b6040518084600b0b815260200183600b0b81526020018273ffffffffffffffffffffffffffffffffffffffff168152602001935050505060405180910390f35b3480156109b657600080fd5b50610acd600480360360a08110156109cd57600080fd5b81019080803573ffffffffffffffffffffffffffffffffffffffff169060200190929190803573ffffffffffffffffffffffffffffffffffffffff1690602001909291908035906020019092919080359060200190640100000000811115610a3457600080fd5b820183602082011115610a4657600080fd5b80359060200191846001830284011164010000000083111715610a6857600080fd5b909192939192939080359060200190640100000000811115610a8957600080fd5b820183602082011115610a9b57600080fd5b80359060200191846001830284011164010000000083111715610abd57600080fd5b9091929391929390505050612ae8565b6040518080602001828103825283818151815260200191508051906020019080838360005b83811015610b0d578082015181840152602081019050610af2565b50505050905090810190601f168015610b3a5780820380516001836020036101000a031916815260200191505b509250505060405180910390f35b348015610b5457600080fd5b50610b8360048036036020811015610b6b57600080fd5b81019080803515159060200190929190505050612b3b565b005b348015610b9157600080fd5b50610ca8600480360360a0811015610ba857600080fd5b81019080803573ffffffffffffffffffffffffffffffffffffffff169060200190929190803573ffffffffffffffffffffffffffffffffffffffff1690602001909291908035906020019092919080359060200190640100000000811115610c0f57600080fd5b820183602082011115610c2157600080fd5b80359060200191846001830284011164010000000083111715610c4357600080fd5b909192939192939080359060200190640100000000811115610c6457600080fd5b820183602082011115610c7657600080fd5b80359060200191846001830284011164010000000083111715610c9857600080fd5b9091929391929390505050612c2e565b6040518080602001828103825283818151815260200191508051906020019080838360005b83811015610ce8578082015181840152602081019050610ccd565b50505050905090810190601f168015610d155780820380516001836020036101000a031916815260200191505b509250505060405180910390f35b348015610d2f57600080fd5b50610e9b600480360360c0811015610d4657600080fd5b81019080803573ffffffffffffffffffffffffffffffffffffffff169060200190929190803573ffffffffffffffffffffffffffffffffffffffff1690602001909291908035906020019092919080359060200190640100000000811115610dad57600080fd5b820183602082011115610dbf57600080fd5b80359060200191846001830284011164010000000083111715610de157600080fd5b909192939192939080359060200190640100000000811115610e0257600080fd5b820183602082011115610e1457600080fd5b80359060200191846001830284011164010000000083111715610e3657600080fd5b909192939192939080359060200190640100000000811115610e5757600080fd5b820183602082011115610e6957600080fd5b80359060200191846001830284011164010000000083111715610e8b57600080fd5b9091929391929390505050612c81565b6040518080602001828103825283818151815260200191508051906020019080838360005b83811015610edb578082015181840152602081019050610ec0565b50505050905090810190601f168015610f085780820380516001836020036101000a031916815260200191505b509250505060405180910390f35b348015610f2257600080fd5b50610f2b612e57565b604051808473ffffffffffffffffffffffffffffffffffffffff1681526020018373ffffffffffffffffffffffffffffffffffffffff1681526020018273ffffffffffffffffffffffffffffffffffffffff168152602001935050505060405180910390f35b600080600080600080600080600080600080600080600073ffffffffffffffffffffffffffffffffffffffff16600360009054906101000a900473ffffffffffffffffffffffffffffffffffffffff1673ffffffffffffffffffffffffffffffffffffffff161461148f57600160009054906101000a900473ffffffffffffffffffffffffffffffffffffffff1673ffffffffffffffffffffffffffffffffffffffff1663e6a1e888600260009054906101000a900473ffffffffffffffffffffffffffffffffffffffff1630600360009054906101000a900473ffffffffffffffffffffffffffffffffffffffff166040518463ffffffff1660e01b8152600401808473ffffffffffffffffffffffffffffffffffffffff1681526020018373ffffffffffffffffffffffffffffffffffffffff1681526020018273ffffffffffffffffffffffffffffffffffffffff168152602001935050505060806040518083038186803b15801561110557600080fd5b505afa158015611119573d6000803e3d6000fd5b505050506040513d608081101561112f57600080fd5b8101908080519060200190929190805190602001909291908051906020019092919080519060200190929190505050905050809b50819f505050600160009054906101000a900473ffffffffffffffffffffffffffffffffffffffff1673ffffffffffffffffffffffffffffffffffffffff1663e6a1e888600260009054906101000a900473ffffffffffffffffffffffffffffffffffffffff1630600460009054906101000a900473ffffffffffffffffffffffffffffffffffffffff166040518463ffffffff1660e01b8152600401808473ffffffffffffffffffffffffffffffffffffffff1681526020018373ffffffffffffffffffffffffffffffffffffffff1681526020018273ffffffffffffffffffffffffffffffffffffffff168152602001935050505060806040518083038186803b15801561127257600080fd5b505afa158015611286573d6000803e3d6000fd5b505050506040513d608081101561129c57600080fd5b8101908080519060200190929190805190602001909291908051906020019092919080519060200190929190505050905050809a50819e505050600160009054906101000a900473ffffffffffffffffffffffffffffffffffffffff1673ffffffffffffffffffffffffffffffffffffffff1663e8e7e2d1600260009054906101000a900473ffffffffffffffffffffffffffffffffffffffff16306040518363ffffffff1660e01b8152600401808373ffffffffffffffffffffffffffffffffffffffff1681526020018273ffffffffffffffffffffffffffffffffffffffff1681526020019250505060206040518083038186803b15801561139f57600080fd5b505afa1580156113b3573d6000803e3d6000fd5b505050506040513d60208110156113c957600080fd5b81019080805190602001909291905050509750600360009054906101000a900473ffffffffffffffffffffffffffffffffffffffff169b50600460009054906101000a900473ffffffffffffffffffffffffffffffffffffffff169a50600560149054906101000a9004600b0b9650600760009054906101000a9004600b0b9550600560009054906101000a900473ffffffffffffffffffffffffffffffffffffffff1694504793506007600c9054906101000a900460ff169250600854915060095490505b909192939495969798999a9b9c9d565b600360009054906101000a900473ffffffffffffffffffffffffffffffffffffffff1673ffffffffffffffffffffffffffffffffffffffff163373ffffffffffffffffffffffffffffffffffffffff1614611545576040517f08c379a00000000000000000000000000000000000000000000000000000000081526004018080602001828103825260238152602001806155d96023913960400191505060405180910390fd5b6001600a6000600560009054906101000a900473ffffffffffffffffffffffffffffffffffffffff1673ffffffffffffffffffffffffffffffffffffffff1673ffffffffffffffffffffffffffffffffffffffff16815260200190815260200160002060006101000a81548160ff021916908315150217905550565b600080600080600854935060095492506006600c9054906101000a9004600b0b9150600660009054906101000a9004600b0b905090919293565b6060898961160882612ed0565b61167a576040517f08c379a00000000000000000000000000000000000000000000000000000000081526004018080602001828103825260178152602001807f4953413a206e6f7420616363657074656420746f6b656e00000000000000000081525060200191505060405180910390fd5b61168381612f2a565b6116f5576040517f08c379a00000000000000000000000000000000000000000000000000000000081526004018080602001828103825260198152602001807f4953413a206f6e6c7920434641763120737570706f727465640000000000000081525060200191505060405180910390fd5b60008054906101000a900473ffffffffffffffffffffffffffffffffffffffff1673ffffffffffffffffffffffffffffffffffffffff163373ffffffffffffffffffffffffffffffffffffffff16146117b6576040517f08c379a000000000000000000000000000000000000000000000000000000000815260040180806020018281038252601a8152602001807f4953413a20737570706f7274206f6e6c79206f6e6520686f737400000000000081525060200191505060405180910390fd5b6117c08585612fd6565b925050509998505050505050505050565b60606040517f08c379a000000000000000000000000000000000000000000000000000000000815260040180806020018281038252602f8152602001806156bc602f913960400191505060405180910390fd5b600560009054906101000a900473ffffffffffffffffffffffffffffffffffffffff1673ffffffffffffffffffffffffffffffffffffffff163373ffffffffffffffffffffffffffffffffffffffff16146118ca576040517f08c379a000000000000000000000000000000000000000000000000000000000815260040180806020018281038252602381526020018061561d6023913960400191505060405180910390fd5b600a60003373ffffffffffffffffffffffffffffffffffffffff1673ffffffffffffffffffffffffffffffffffffffff16815260200190815260200160002060009054906101000a900460ff1661196c576040517f08c379a00000000000000000000000000000000000000000000000000000000081526004018080602001828103825260248152602001806156986024913960400191505060405180910390fd5b600560009054906101000a900473ffffffffffffffffffffffffffffffffffffffff1673ffffffffffffffffffffffffffffffffffffffff166108fc670de0b6b3a76400009081150290604051600060405180830381858888f193505050501580156119dc573d6000803e3d6000fd5b50565b600460009054906101000a900473ffffffffffffffffffffffffffffffffffffffff1673ffffffffffffffffffffffffffffffffffffffff163373ffffffffffffffffffffffffffffffffffffffff1614611aa2576040517f08c379a000000000000000000000000000000000000000000000000000000000815260040180806020018281038252601d8152602001807f4f6e6c79206c656e6465722063616e2073656c6c20746869732049534100000081525060200191505060405180910390fd5b600073ffffffffffffffffffffffffffffffffffffffff168173ffffffffffffffffffffffffffffffffffffffff161415611b45576040517f08c379a000000000000000000000000000000000000000000000000000000000815260040180806020018281038252601b8152602001807f4e65772073747564656e74206973207a65726f2061646472657373000000000081525060200191505060405180910390fd5b60008054906101000a900473ffffffffffffffffffffffffffffffffffffffff1673ffffffffffffffffffffffffffffffffffffffff16633ca3ad4e826040518263ffffffff1660e01b8152600401808273ffffffffffffffffffffffffffffffffffffffff16815260200191505060206040518083038186803b158015611bcc57600080fd5b505afa158015611be0573d6000803e3d6000fd5b505050506040513d6020811015611bf657600080fd5b810190808051906020019092919050505015611c5d576040517f08c379a00000000000000000000000000000000000000000000000000000000081526004018080602001828103825260218152602001806155fc6021913960400191505060405180910390fd5b600460009054906101000a900473ffffffffffffffffffffffffffffffffffffffff1673ffffffffffffffffffffffffffffffffffffffff168173ffffffffffffffffffffffffffffffffffffffff161415611cb85761255f565b60008054906101000a900473ffffffffffffffffffffffffffffffffffffffff1673ffffffffffffffffffffffffffffffffffffffff166339255d5b600160009054906101000a900473ffffffffffffffffffffffffffffffffffffffff1663b4b333c660e01b600260009054906101000a900473ffffffffffffffffffffffffffffffffffffffff1630600460009054906101000a900473ffffffffffffffffffffffffffffffffffffffff16600067ffffffffffffffff81118015611d7e57600080fd5b506040519080825280601f01601f191660200182016040528015611db15781602001600182028036833780820191505090505b50604051602401808573ffffffffffffffffffffffffffffffffffffffff1681526020018473ffffffffffffffffffffffffffffffffffffffff1681526020018373ffffffffffffffffffffffffffffffffffffffff16815260200180602001828103825283818151815260200191508051906020019080838360005b83811015611e49578082015181840152602081019050611e2e565b50505050905090810190601f168015611e765780820380516001836020036101000a031916815260200191505b5095505050505050604051602081830303815290604052907bffffffffffffffffffffffffffffffffffffffffffffffffffffffff19166020820180517bffffffffffffffffffffffffffffffffffffffffffffffffffffffff83818316178352505050506040518363ffffffff1660e01b8152600401808373ffffffffffffffffffffffffffffffffffffffff1681526020018060200180602001838103835284818151815260200191508051906020019080838360005b83811015611f4a578082015181840152602081019050611f2f565b50505050905090810190601f168015611f775780820380516001836020036101000a031916815260200191505b50838103825260028152602001807f3078000000000000000000000000000000000000000000000000000000000000815250602001945050505050600060405180830381600087803b158015611fcc57600080fd5b505af1158015611fe0573d6000803e3d6000fd5b505050506040513d6000823e3d601f19601f82011682018060405250602081101561200a57600080fd5b810190808051604051939291908464010000000082111561202a57600080fd5b8382019150602082018581111561204057600080fd5b825186600182028301116401000000008211171561205d57600080fd5b8083526020830192505050908051906020019080838360005b83811015612091578082015181840152602081019050612076565b50505050905090810190601f1680156120be5780820380516001836020036101000a031916815260200191505b506040525050505060008054906101000a900473ffffffffffffffffffffffffffffffffffffffff1673ffffffffffffffffffffffffffffffffffffffff166339255d5b600160009054906101000a900473ffffffffffffffffffffffffffffffffffffffff166362fc305e60e01b600260009054906101000a900473ffffffffffffffffffffffffffffffffffffffff1685600660009054906101000a9004600b0b600067ffffffffffffffff8111801561217957600080fd5b506040519080825280601f01601f1916602001820160405280156121ac5781602001600182028036833780820191505090505b50604051602401808573ffffffffffffffffffffffffffffffffffffffff1681526020018473ffffffffffffffffffffffffffffffffffffffff16815260200183600b0b815260200180602001828103825283818151815260200191508051906020019080838360005b83811015612231578082015181840152602081019050612216565b50505050905090810190601f16801561225e5780820380516001836020036101000a031916815260200191505b5095505050505050604051602081830303815290604052907bffffffffffffffffffffffffffffffffffffffffffffffffffffffff19166020820180517bffffffffffffffffffffffffffffffffffffffffffffffffffffffff83818316178352505050506040518363ffffffff1660e01b8152600401808373ffffffffffffffffffffffffffffffffffffffff1681526020018060200180602001838103835284818151815260200191508051906020019080838360005b83811015612332578082015181840152602081019050612317565b50505050905090810190601f16801561235f5780820380516001836020036101000a031916815260200191505b50838103825260028152602001807f3078000000000000000000000000000000000000000000000000000000000000815250602001945050505050600060405180830381600087803b1580156123b457600080fd5b505af11580156123c8573d6000803e3d6000fd5b505050506040513d6000823e3d601f19601f8201168201806040525060208110156123f257600080fd5b810190808051604051939291908464010000000082111561241257600080fd5b8382019150602082018581111561242857600080fd5b825186600182028301116401000000008211171561244557600080fd5b8083526020830192505050908051906020019080838360005b8381101561247957808201518184015260208101905061245e565b50505050905090810190601f1680156124a65780820380516001836020036101000a031916815260200191505b506040525050505080600360006101000a81548173ffffffffffffffffffffffffffffffffffffffff021916908373ffffffffffffffffffffffffffffffffffffffff1602179055507f579add3b5a607f9e3a5063c17303f8f7a90cd713a3cd86a34d2cba79fe474692600360009054906101000a900473ffffffffffffffffffffffffffffffffffffffff16604051808273ffffffffffffffffffffffffffffffffffffffff16815260200191505060405180910390a15b50565b606060008054906101000a900473ffffffffffffffffffffffffffffffffffffffff1673ffffffffffffffffffffffffffffffffffffffff163373ffffffffffffffffffffffffffffffffffffffff1614612625576040517f08c379a000000000000000000000000000000000000000000000000000000000815260040180806020018281038252601a8152602001807f4953413a20737570706f7274206f6e6c79206f6e6520686f737400000000000081525060200191505060405180910390fd5b61262e8a612ed0565b1580612640575061263e89612f2a565b155b156126915782828080601f016020809104026020016040519081016040528093929190818152602001838380828437600081840152601f19601f82011690508083019250505050505050905061269e565b61269b8383612fd6565b90505b9998505050505050505050565b6000806000600160009054906101000a900473ffffffffffffffffffffffffffffffffffffffff1673ffffffffffffffffffffffffffffffffffffffff1663e6a1e888600260009054906101000a900473ffffffffffffffffffffffffffffffffffffffff1630600360009054906101000a900473ffffffffffffffffffffffffffffffffffffffff166040518463ffffffff1660e01b8152600401808473ffffffffffffffffffffffffffffffffffffffff1681526020018373ffffffffffffffffffffffffffffffffffffffff1681526020018273ffffffffffffffffffffffffffffffffffffffff168152602001935050505060806040518083038186803b1580156127b957600080fd5b505afa1580156127cd573d6000803e3d6000fd5b505050506040513d60808110156127e357600080fd5b81019080805190602001909291908051906020019092919080519060200190929190805190602001909291905050509091925090505080935050600160009054906101000a900473ffffffffffffffffffffffffffffffffffffffff1673ffffffffffffffffffffffffffffffffffffffff1663e6a1e888600260009054906101000a900473ffffffffffffffffffffffffffffffffffffffff1630600460009054906101000a900473ffffffffffffffffffffffffffffffffffffffff166040518463ffffffff1660e01b8152600401808473ffffffffffffffffffffffffffffffffffffffff1681526020018373ffffffffffffffffffffffffffffffffffffffff1681526020018273ffffffffffffffffffffffffffffffffffffffff168152602001935050505060806040518083038186803b15801561292657600080fd5b505afa15801561293a573d6000803e3d6000fd5b505050506040513d608081101561295057600080fd5b81019080805190602001909291908051906020019092919080519060200190929190805190602001909291905050509091925090505080925050600160009054906101000a900473ffffffffffffffffffffffffffffffffffffffff1673ffffffffffffffffffffffffffffffffffffffff1663e8e7e2d1600260009054906101000a900473ffffffffffffffffffffffffffffffffffffffff16306040518363ffffffff1660e01b8152600401808373ffffffffffffffffffffffffffffffffffffffff1681526020018273ffffffffffffffffffffffffffffffffffffffff1681526020019250505060206040518083038186803b158015612a5357600080fd5b505afa158015612a67573d6000803e3d6000fd5b505050506040513d6020811015612a7d57600080fd5b81019080805190602001909291905050509050909192565b6000806000600560149054906101000a9004600b0b9250600760009054906101000a9004600b0b9150600260009054906101000a900473ffffffffffffffffffffffffffffffffffffffff169050909192565b60606040517f08c379a000000000000000000000000000000000000000000000000000000000815260040180806020018281038252603381526020018061557b6033913960400191505060405180910390fd5b600460009054906101000a900473ffffffffffffffffffffffffffffffffffffffff1673ffffffffffffffffffffffffffffffffffffffff163373ffffffffffffffffffffffffffffffffffffffff1614612be1576040517f08c379a000000000000000000000000000000000000000000000000000000000815260040180806020018281038252602181526020018061555a6021913960400191505060405180910390fd5b6007600c9054906101000a900460ff1615158115151415612c0157612c2b565b6007600c9054906101000a900460ff166007600c6101000a81548160ff0219169083151502179055505b50565b60606040517f08c379a000000000000000000000000000000000000000000000000000000000815260040180806020018281038252602f815260200180615640602f913960400191505060405180910390fd5b60608989612c8e82612ed0565b612d00576040517f08c379a00000000000000000000000000000000000000000000000000000000081526004018080602001828103825260178152602001807f4953413a206e6f7420616363657074656420746f6b656e00000000000000000081525060200191505060405180910390fd5b612d0981612f2a565b612d7b576040517f08c379a00000000000000000000000000000000000000000000000000000000081526004018080602001828103825260198152602001807f4953413a206f6e6c7920434641763120737570706f727465640000000000000081525060200191505060405180910390fd5b60008054906101000a900473ffffffffffffffffffffffffffffffffffffffff1673ffffffffffffffffffffffffffffffffffffffff163373ffffffffffffffffffffffffffffffffffffffff1614612e3c576040517f08c379a000000000000000000000000000000000000000000000000000000000815260040180806020018281038252601a8152602001807f4953413a20737570706f7274206f6e6c79206f6e6520686f737400000000000081525060200191505060405180910390fd5b612e468585612fd6565b925050509998505050505050505050565b6000806000600360009054906101000a900473ffffffffffffffffffffffffffffffffffffffff169250600460009054906101000a900473ffffffffffffffffffffffffffffffffffffffff169150600560009054906101000a900473ffffffffffffffffffffffffffffffffffffffff169050909192565b6000600260009054906101000a900473ffffffffffffffffffffffffffffffffffffffff1673ffffffffffffffffffffffffffffffffffffffff168273ffffffffffffffffffffffffffffffffffffffff16149050919050565b60007fa9214cc96615e0085d3bb077758db69497dc2dce3b2b1e97bc93c3d18d83efd38273ffffffffffffffffffffffffffffffffffffffff16637730599e6040518163ffffffff1660e01b815260040160206040518083038186803b158015612f9357600080fd5b505afa158015612fa7573d6000803e3d6000fd5b505050506040513d6020811015612fbd57600080fd5b8101908080519060200190929190505050149050919050565b606082828080601f016020809104026020016040519081016040528093929190818152602001838380828437600081840152601f19601f8201169050808301925050505050505090506000600160009054906101000a900473ffffffffffffffffffffffffffffffffffffffff1673ffffffffffffffffffffffffffffffffffffffff1663e8e7e2d1600260009054906101000a900473ffffffffffffffffffffffffffffffffffffffff16306040518363ffffffff1660e01b8152600401808373ffffffffffffffffffffffffffffffffffffffff1681526020018273ffffffffffffffffffffffffffffffffffffffff1681526020019250505060206040518083038186803b1580156130ea57600080fd5b505afa1580156130fe573d6000803e3d6000fd5b505050506040513d602081101561311457600080fd5b810190808051906020019092919050505090506000600160009054906101000a900473ffffffffffffffffffffffffffffffffffffffff1673ffffffffffffffffffffffffffffffffffffffff1663e6a1e888600260009054906101000a900473ffffffffffffffffffffffffffffffffffffffff1630600360009054906101000a900473ffffffffffffffffffffffffffffffffffffffff166040518463ffffffff1660e01b8152600401808473ffffffffffffffffffffffffffffffffffffffff1681526020018373ffffffffffffffffffffffffffffffffffffffff1681526020018273ffffffffffffffffffffffffffffffffffffffff168152602001935050505060806040518083038186803b15801561323257600080fd5b505afa158015613246573d6000803e3d6000fd5b505050506040513d608081101561325c57600080fd5b81019080805190602001909291908051906020019092919080519060200190929190805190602001909291905050505050915050600080600160009054906101000a900473ffffffffffffffffffffffffffffffffffffffff1673ffffffffffffffffffffffffffffffffffffffff1663e6a1e888600260009054906101000a900473ffffffffffffffffffffffffffffffffffffffff1630600460009054906101000a900473ffffffffffffffffffffffffffffffffffffffff166040518463ffffffff1660e01b8152600401808473ffffffffffffffffffffffffffffffffffffffff1681526020018373ffffffffffffffffffffffffffffffffffffffff1681526020018273ffffffffffffffffffffffffffffffffffffffff168152602001935050505060806040518083038186803b15801561339c57600080fd5b505afa1580156133b0573d6000803e3d6000fd5b505050506040513d60808110156133c657600080fd5b8101908080519060200190929190805190602001909291908051906020019092919080519060200190929190505050505091509150600081848601019050600081600b0b1215613417578060000390505b600760009054906101000a9004600b0b600b0b81600b0b12156134a2576000600660006101000a8154816bffffffffffffffffffffffff0219169083600b0b6bffffffffffffffffffffffff160217905550806006600c6101000a8154816bffffffffffffffffffffffff0219169083600b0b6bffffffffffffffffffffffff16021790555061353d565b600560149054906101000a9004600b0b6064600b0b82600b0b816134c257fe5b0502600660006101000a8154816bffffffffffffffffffffffff0219169083600b0b6bffffffffffffffffffffffff160217905550600660009054906101000a9004600b0b81036006600c6101000a8154816bffffffffffffffffffffffff0219169083600b0b6bffffffffffffffffffffffff1602179055505b6000600b0b81600b0b136140295760008054906101000a900473ffffffffffffffffffffffffffffffffffffffff1673ffffffffffffffffffffffffffffffffffffffff16634329d293600160009054906101000a900473ffffffffffffffffffffffffffffffffffffffff1663b4b333c660e01b600260009054906101000a900473ffffffffffffffffffffffffffffffffffffffff1630600360009054906101000a900473ffffffffffffffffffffffffffffffffffffffff16600067ffffffffffffffff8111801561361157600080fd5b506040519080825280601f01601f1916602001820160405280156136445781602001600182028036833780820191505090505b50604051602401808573ffffffffffffffffffffffffffffffffffffffff1681526020018473ffffffffffffffffffffffffffffffffffffffff1681526020018373ffffffffffffffffffffffffffffffffffffffff16815260200180602001828103825283818151815260200191508051906020019080838360005b838110156136dc5780820151818401526020810190506136c1565b50505050905090810190601f1680156137095780820380516001836020036101000a031916815260200191505b5095505050505050604051602081830303815290604052907bffffffffffffffffffffffffffffffffffffffffffffffffffffffff19166020820180517bffffffffffffffffffffffffffffffffffffffffffffffffffffffff8381831617835250505050896040518463ffffffff1660e01b8152600401808473ffffffffffffffffffffffffffffffffffffffff168152602001806020018060200180602001848103845286818151815260200191508051906020019080838360005b838110156137e25780820151818401526020810190506137c7565b50505050905090810190601f16801561380f5780820380516001836020036101000a031916815260200191505b50848103835260028152602001807f3078000000000000000000000000000000000000000000000000000000000000815250602001848103825285818151815260200191508051906020019080838360005b8381101561387c578082015181840152602081019050613861565b50505050905090810190601f1680156138a95780820380516001836020036101000a031916815260200191505b509650505050505050600060405180830381600087803b1580156138cc57600080fd5b505af11580156138e0573d6000803e3d6000fd5b505050506040513d6000823e3d601f19601f82011682018060405250604081101561390a57600080fd5b810190808051604051939291908464010000000082111561392a57600080fd5b8382019150602082018581111561394057600080fd5b825186600182028301116401000000008211171561395d57600080fd5b8083526020830192505050908051906020019080838360005b83811015613991578082015181840152602081019050613976565b50505050905090810190601f1680156139be5780820380516001836020036101000a031916815260200191505b50604052602001805160405193929190846401000000008211156139e157600080fd5b838201915060208201858111156139f757600080fd5b8251866001820283011164010000000082111715613a1457600080fd5b8083526020830192505050908051906020019080838360005b83811015613a48578082015181840152602081019050613a2d565b50505050905090810190601f168015613a755780820380516001836020036101000a031916815260200191505b506040525050505080965050600760009054906101000a9004600b0b600b0b81600b0b1315613fd55760008054906101000a900473ffffffffffffffffffffffffffffffffffffffff1673ffffffffffffffffffffffffffffffffffffffff16634329d293600160009054906101000a900473ffffffffffffffffffffffffffffffffffffffff1663b4b333c660e01b600260009054906101000a900473ffffffffffffffffffffffffffffffffffffffff1630600460009054906101000a900473ffffffffffffffffffffffffffffffffffffffff16600067ffffffffffffffff81118015613b6457600080fd5b506040519080825280601f01601f191660200182016040528015613b975781602001600182028036833780820191505090505b50604051602401808573ffffffffffffffffffffffffffffffffffffffff1681526020018473ffffffffffffffffffffffffffffffffffffffff1681526020018373ffffffffffffffffffffffffffffffffffffffff16815260200180602001828103825283818151815260200191508051906020019080838360005b83811015613c2f578082015181840152602081019050613c14565b50505050905090810190601f168015613c5c5780820380516001836020036101000a031916815260200191505b5095505050505050604051602081830303815290604052907bffffffffffffffffffffffffffffffffffffffffffffffffffffffff19166020820180517bffffffffffffffffffffffffffffffffffffffffffffffffffffffff8381831617835250505050896040518463ffffffff1660e01b8152600401808473ffffffffffffffffffffffffffffffffffffffff168152602001806020018060200180602001848103845286818151815260200191508051906020019080838360005b83811015613d35578082015181840152602081019050613d1a565b50505050905090810190601f168015613d625780820380516001836020036101000a031916815260200191505b50848103835260028152602001807f3078000000000000000000000000000000000000000000000000000000000000815250602001848103825285818151815260200191508051906020019080838360005b83811015613dcf578082015181840152602081019050613db4565b50505050905090810190601f168015613dfc5780820380516001836020036101000a031916815260200191505b509650505050505050600060405180830381600087803b158015613e1f57600080fd5b505af1158015613e33573d6000803e3d6000fd5b505050506040513d6000823e3d601f19601f820116820180604052506040811015613e5d57600080fd5b8101908080516040519392919084640100000000821115613e7d57600080fd5b83820191506020820185811115613e9357600080fd5b8251866001820283011164010000000082111715613eb057600080fd5b8083526020830192505050908051906020019080838360005b83811015613ee4578082015181840152602081019050613ec9565b50505050905090810190601f168015613f115780820380516001836020036101000a031916815260200191505b5060405260200180516040519392919084640100000000821115613f3457600080fd5b83820191506020820185811115613f4a57600080fd5b8251866001820283011164010000000082111715613f6757600080fd5b8083526020830192505050908051906020019080838360005b83811015613f9b578082015181840152602081019050613f80565b50505050905090810190601f168015613fc85780820380516001836020036101000a031916815260200191505b5060405250505050809650505b600760009054906101000a9004600b0b600b0b81600b0b13801561400b57506000600660009054906101000a9004600b0b600b0b135b15614024576140198361554d565b600954016009819055505b615542565b6000600b0b84600b0b14614abe5760008054906101000a900473ffffffffffffffffffffffffffffffffffffffff1673ffffffffffffffffffffffffffffffffffffffff16634329d293600160009054906101000a900473ffffffffffffffffffffffffffffffffffffffff166350209a6260e01b600260009054906101000a900473ffffffffffffffffffffffffffffffffffffffff16600360009054906101000a900473ffffffffffffffffffffffffffffffffffffffff166006600c9054906101000a9004600b0b600067ffffffffffffffff8111801561410c57600080fd5b506040519080825280601f01601f19166020018201604052801561413f5781602001600182028036833780820191505090505b50604051602401808573ffffffffffffffffffffffffffffffffffffffff1681526020018473ffffffffffffffffffffffffffffffffffffffff16815260200183600b0b815260200180602001828103825283818151815260200191508051906020019080838360005b838110156141c45780820151818401526020810190506141a9565b50505050905090810190601f1680156141f15780820380516001836020036101000a031916815260200191505b5095505050505050604051602081830303815290604052907bffffffffffffffffffffffffffffffffffffffffffffffffffffffff19166020820180517bffffffffffffffffffffffffffffffffffffffffffffffffffffffff8381831617835250505050896040518463ffffffff1660e01b8152600401808473ffffffffffffffffffffffffffffffffffffffff168152602001806020018060200180602001848103845286818151815260200191508051906020019080838360005b838110156142ca5780820151818401526020810190506142af565b50505050905090810190601f1680156142f75780820380516001836020036101000a031916815260200191505b50848103835260028152602001807f3078000000000000000000000000000000000000000000000000000000000000815250602001848103825285818151815260200191508051906020019080838360005b83811015614364578082015181840152602081019050614349565b50505050905090810190601f1680156143915780820380516001836020036101000a031916815260200191505b509650505050505050600060405180830381600087803b1580156143b457600080fd5b505af11580156143c8573d6000803e3d6000fd5b505050506040513d6000823e3d601f19601f8201168201806040525060408110156143f257600080fd5b810190808051604051939291908464010000000082111561441257600080fd5b8382019150602082018581111561442857600080fd5b825186600182028301116401000000008211171561444557600080fd5b8083526020830192505050908051906020019080838360005b8381101561447957808201518184015260208101905061445e565b50505050905090810190601f1680156144a65780820380516001836020036101000a031916815260200191505b50604052602001805160405193929190846401000000008211156144c957600080fd5b838201915060208201858111156144df57600080fd5b82518660018202830111640100000000821117156144fc57600080fd5b8083526020830192505050908051906020019080838360005b83811015614530578082015181840152602081019050614515565b50505050905090810190601f16801561455d5780820380516001836020036101000a031916815260200191505b506040525050505080965050600760009054906101000a9004600b0b600b0b81600b0b1315614ab95760008054906101000a900473ffffffffffffffffffffffffffffffffffffffff1673ffffffffffffffffffffffffffffffffffffffff16634329d293600160009054906101000a900473ffffffffffffffffffffffffffffffffffffffff166350209a6260e01b600260009054906101000a900473ffffffffffffffffffffffffffffffffffffffff16600460009054906101000a900473ffffffffffffffffffffffffffffffffffffffff16600660009054906101000a9004600b0b600067ffffffffffffffff8111801561465b57600080fd5b506040519080825280601f01601f19166020018201604052801561468e5781602001600182028036833780820191505090505b50604051602401808573ffffffffffffffffffffffffffffffffffffffff1681526020018473ffffffffffffffffffffffffffffffffffffffff16815260200183600b0b815260200180602001828103825283818151815260200191508051906020019080838360005b838110156147135780820151818401526020810190506146f8565b50505050905090810190601f1680156147405780820380516001836020036101000a031916815260200191505b5095505050505050604051602081830303815290604052907bffffffffffffffffffffffffffffffffffffffffffffffffffffffff19166020820180517bffffffffffffffffffffffffffffffffffffffffffffffffffffffff8381831617835250505050896040518463ffffffff1660e01b8152600401808473ffffffffffffffffffffffffffffffffffffffff168152602001806020018060200180602001848103845286818151815260200191508051906020019080838360005b838110156148195780820151818401526020810190506147fe565b50505050905090810190601f1680156148465780820380516001836020036101000a031916815260200191505b50848103835260028152602001807f3078000000000000000000000000000000000000000000000000000000000000815250602001848103825285818151815260200191508051906020019080838360005b838110156148b3578082015181840152602081019050614898565b50505050905090810190601f1680156148e05780820380516001836020036101000a031916815260200191505b509650505050505050600060405180830381600087803b15801561490357600080fd5b505af1158015614917573d6000803e3d6000fd5b505050506040513d6000823e3d601f19601f82011682018060405250604081101561494157600080fd5b810190808051604051939291908464010000000082111561496157600080fd5b8382019150602082018581111561497757600080fd5b825186600182028301116401000000008211171561499457600080fd5b8083526020830192505050908051906020019080838360005b838110156149c85780820151818401526020810190506149ad565b50505050905090810190601f1680156149f55780820380516001836020036101000a031916815260200191505b5060405260200180516040519392919084640100000000821115614a1857600080fd5b83820191506020820185811115614a2e57600080fd5b8251866001820283011164010000000082111715614a4b57600080fd5b8083526020830192505050908051906020019080838360005b83811015614a7f578082015181840152602081019050614a64565b50505050905090810190601f168015614aac5780820380516001836020036101000a031916815260200191505b5060405250505050809650505b615541565b60008054906101000a900473ffffffffffffffffffffffffffffffffffffffff1673ffffffffffffffffffffffffffffffffffffffff16634329d293600160009054906101000a900473ffffffffffffffffffffffffffffffffffffffff166362fc305e60e01b600260009054906101000a900473ffffffffffffffffffffffffffffffffffffffff16600360009054906101000a900473ffffffffffffffffffffffffffffffffffffffff166006600c9054906101000a9004600b0b600067ffffffffffffffff81118015614b9357600080fd5b506040519080825280601f01601f191660200182016040528015614bc65781602001600182028036833780820191505090505b50604051602401808573ffffffffffffffffffffffffffffffffffffffff1681526020018473ffffffffffffffffffffffffffffffffffffffff16815260200183600b0b815260200180602001828103825283818151815260200191508051906020019080838360005b83811015614c4b578082015181840152602081019050614c30565b50505050905090810190601f168015614c785780820380516001836020036101000a031916815260200191505b5095505050505050604051602081830303815290604052907bffffffffffffffffffffffffffffffffffffffffffffffffffffffff19166020820180517bffffffffffffffffffffffffffffffffffffffffffffffffffffffff8381831617835250505050896040518463ffffffff1660e01b8152600401808473ffffffffffffffffffffffffffffffffffffffff168152602001806020018060200180602001848103845286818151815260200191508051906020019080838360005b83811015614d51578082015181840152602081019050614d36565b50505050905090810190601f168015614d7e5780820380516001836020036101000a031916815260200191505b50848103835260028152602001807f3078000000000000000000000000000000000000000000000000000000000000815250602001848103825285818151815260200191508051906020019080838360005b83811015614deb578082015181840152602081019050614dd0565b50505050905090810190601f168015614e185780820380516001836020036101000a031916815260200191505b509650505050505050600060405180830381600087803b158015614e3b57600080fd5b505af1158015614e4f573d6000803e3d6000fd5b505050506040513d6000823e3d601f19601f820116820180604052506040811015614e7957600080fd5b8101908080516040519392919084640100000000821115614e9957600080fd5b83820191506020820185811115614eaf57600080fd5b8251866001820283011164010000000082111715614ecc57600080fd5b8083526020830192505050908051906020019080838360005b83811015614f00578082015181840152602081019050614ee5565b50505050905090810190601f168015614f2d5780820380516001836020036101000a031916815260200191505b5060405260200180516040519392919084640100000000821115614f5057600080fd5b83820191506020820185811115614f6657600080fd5b8251866001820283011164010000000082111715614f8357600080fd5b8083526020830192505050908051906020019080838360005b83811015614fb7578082015181840152602081019050614f9c565b50505050905090810190601f168015614fe45780820380516001836020036101000a031916815260200191505b506040525050505080965050600760009054906101000a9004600b0b600b0b81600b0b13156155405760008054906101000a900473ffffffffffffffffffffffffffffffffffffffff1673ffffffffffffffffffffffffffffffffffffffff16634329d293600160009054906101000a900473ffffffffffffffffffffffffffffffffffffffff166362fc305e60e01b600260009054906101000a900473ffffffffffffffffffffffffffffffffffffffff16600460009054906101000a900473ffffffffffffffffffffffffffffffffffffffff16600660009054906101000a9004600b0b600067ffffffffffffffff811180156150e257600080fd5b506040519080825280601f01601f1916602001820160405280156151155781602001600182028036833780820191505090505b50604051602401808573ffffffffffffffffffffffffffffffffffffffff1681526020018473ffffffffffffffffffffffffffffffffffffffff16815260200183600b0b815260200180602001828103825283818151815260200191508051906020019080838360005b8381101561519a57808201518184015260208101905061517f565b50505050905090810190601f1680156151c75780820380516001836020036101000a031916815260200191505b5095505050505050604051602081830303815290604052907bffffffffffffffffffffffffffffffffffffffffffffffffffffffff19166020820180517bffffffffffffffffffffffffffffffffffffffffffffffffffffffff8381831617835250505050896040518463ffffffff1660e01b8152600401808473ffffffffffffffffffffffffffffffffffffffff168152602001806020018060200180602001848103845286818151815260200191508051906020019080838360005b838110156152a0578082015181840152602081019050615285565b50505050905090810190601f1680156152cd5780820380516001836020036101000a031916815260200191505b50848103835260028152602001807f3078000000000000000000000000000000000000000000000000000000000000815250602001848103825285818151815260200191508051906020019080838360005b8381101561533a57808201518184015260208101905061531f565b50505050905090810190601f1680156153675780820380516001836020036101000a031916815260200191505b509650505050505050600060405180830381600087803b15801561538a57600080fd5b505af115801561539e573d6000803e3d6000fd5b505050506040513d6000823e3d601f19601f8201168201806040525060408110156153c857600080fd5b81019080805160405193929190846401000000008211156153e857600080fd5b838201915060208201858111156153fe57600080fd5b825186600182028301116401000000008211171561541b57600080fd5b8083526020830192505050908051906020019080838360005b8381101561544f578082015181840152602081019050615434565b50505050905090810190601f16801561547c5780820380516001836020036101000a031916815260200191505b506040526020018051604051939291908464010000000082111561549f57600080fd5b838201915060208201858111156154b557600080fd5b82518660018202830111640100000000821117156154d257600080fd5b8083526020830192505050908051906020019080838360005b838110156155065780820151818401526020810190506154eb565b50505050905090810190601f1680156155335780820380516001836020036101000a031916815260200191505b5060405250505050809650505b5b5b505050505092915050565b6000814203905091905056fe4f6e6c79206c656e6465722063616e206d616b6520697420747261646561626c65556e737570706f727465642063616c6c6261636b202d20204265666f72652041677265656d656e74205465726d696e617465644f6e6c79206c656e6465722063616e2073656e64206d6f6e657920746f207468697320436f6e74726163744f6e6c792053747564656e742063616e20617070726f766520496e737469747574652e4e65772073747564656e742063616e206e6f7420626520612073757065724170704f6e6c7920496e737469747574652063616e207769746864726177206d6f6e65792121556e737570706f727465642063616c6c6261636b202d204265666f72652041677265656d656e7420757064617465644f6e6c7920312065746865722063616e2062652073656e7420746f207468697320636f6e7472616374776974686472617720796574206e6f7420617070726f7665642062792073747564656e74556e737570706f727465642063616c6c6261636b202d204265666f72652041677265656d656e742043726561746564a264697066735822122067f8fc2d8ffbc347ab212a9e2a17cc1374a6359265d4c00da97eb16016ca189964736f6c63430007060033",
  "immutableReferences": {},
  "source": "// SPDX-License-Identifier: MIT\npragma solidity ^0.7.0;\n\nimport {\n    ISuperfluid,\n    ISuperToken,\n    ISuperApp,\n    ISuperAgreement,\n    SuperAppDefinitions\n} from \"@superfluid-finance/ethereum-contracts/contracts/interfaces/superfluid/ISuperfluid.sol\";//\"@superfluid-finance/ethereum-monorepo/packages/ethereum-contracts/contracts/interfaces/superfluid/ISuperfluid.sol\";\n\nimport {\n    IConstantFlowAgreementV1\n} from \"@superfluid-finance/ethereum-contracts/contracts/interfaces/agreements/IConstantFlowAgreementV1.sol\";\n\nimport {\n    SuperAppBase\n} from \"@superfluid-finance/ethereum-contracts/contracts/apps/SuperAppBase.sol\";\ncontract ISA is SuperAppBase {\n    ISuperfluid private _host; // host\n    IConstantFlowAgreementV1 private _cfa; // the stored constant flow agreement class address\n    ISuperToken private _acceptedToken; // accepted token\n    address payable _student;\n    address private _lender;\n    address payable _institute;\n    int96 private _rate;\n    int96 private _lenderRate;\n    int96 private _studentRate;\n\n    int96 private _threholdSalaryFlowRate;\n\n    bool _isTradeable;\n\n    // The below vars are used in context of lender\n    uint256 _totalTime;\n    uint256 _timeUnitPaid;\n\n    mapping(address => bool) _approval;\n\n    constructor(\n        ISuperfluid host,\n        IConstantFlowAgreementV1 cfa,\n        ISuperToken acceptedToken,\n        address payable student,\n        address lender,\n        address payable institute,\n        int96 thresholdSalary,\n        uint256 totalTime,\n        int96 rate\n    ) {\n        assert(address(host) != address(0));\n        assert(address(cfa) != address(0));\n        assert(address(acceptedToken) != address(0));\n        assert(address(student) != address(0));\n        assert(address(lender) != address(0));\n        // Rate to lender can be between (10-80)%\n        assert(rate > 10 && rate < 80);\n        //assert(!_host.isApp(ISuperApp(student)));\n        assert(totalTime > 0 && totalTime <= 63072000);\n\n        _host = host;\n        _cfa = cfa;\n        _acceptedToken = acceptedToken;\n        _student = student;\n        _lender = lender;\n        _rate = rate;\n        _institute = institute;\n        _threholdSalaryFlowRate = thresholdSalary;\n        _isTradeable = false;\n        _timeUnitPaid = 0;\n        // @dev ttotalTime is in seconds\n        _totalTime = totalTime;\n\n        uint256 configWord = SuperAppDefinitions.APP_LEVEL_FINAL |\n            SuperAppDefinitions.BEFORE_AGREEMENT_CREATED_NOOP |\n            SuperAppDefinitions.BEFORE_AGREEMENT_UPDATED_NOOP |\n            SuperAppDefinitions.BEFORE_AGREEMENT_TERMINATED_NOOP;\n\n        _host.registerApp(configWord);\n    }\n\n    /**************************************************************************\n     * Redirect Logic\n     *************************************************************************/\n\n    function contractParties()\n        external\n        view\n        returns (\n            address student,\n            address lender,\n            address institute\n        )\n    {\n        student = _student;\n        lender = _lender;\n        institute = _institute;\n    }\n\n    function contractRates()\n        external\n        view\n        returns (\n            int96 distributionRate,\n            int96 thresholdSalary,\n            ISuperToken acceptedToken\n        )\n    {\n        distributionRate = _rate;\n        thresholdSalary = _threholdSalaryFlowRate;\n        acceptedToken = _acceptedToken;\n    }\n\n    function contractFlows()\n        external\n        view\n        returns (\n            int96 studentflowRate,\n            int96 lenderflowRate,\n            int96 netFlowISA\n        )\n    {\n        (, studentflowRate, , ) = _cfa.getFlow(\n            _acceptedToken,\n            address(this),\n            _student\n        );\n        (, lenderflowRate, , ) = _cfa.getFlow(\n            _acceptedToken,\n            address(this),\n            _lender\n        );\n        netFlowISA = _cfa.getNetFlow(_acceptedToken, address(this));\n    }\n\n    function contractBalances()\n        external\n        view\n        returns (\n            uint256 totalTime,\n            uint256 timeUnitPaid,\n            int96 currentStudentRate,\n            int96 currentLenderRate\n        )\n    {\n        totalTime = _totalTime;\n        timeUnitPaid = _timeUnitPaid;\n        // These below are flowrate in wei per sec.\n        currentStudentRate = _studentRate;\n        currentLenderRate = _lenderRate;\n    }\n\n    function currentState()\n        external\n        view\n        returns (\n            uint256 startTimeStudent,\n            uint256 startTimeLender,\n            address student,\n            address lender,\n            int96 studentflowRate,\n            int96 lenderflowRate,\n            int96 netFlowISA,\n            int96 distributionRate,\n            int96 thresholdSalary,\n            address institute,\n            uint256 balance,\n            bool isTradeable,\n            uint256 totalTime,\n            uint256 timeUnitPaid\n        )\n    {\n        if (_student != address(0)) {\n            (startTimeStudent, studentflowRate, , ) = _cfa.getFlow(\n                _acceptedToken,\n                address(this),\n                _student\n            );\n            (startTimeLender, lenderflowRate, , ) = _cfa.getFlow(\n                _acceptedToken,\n                address(this),\n                _lender\n            );\n            netFlowISA = _cfa.getNetFlow(_acceptedToken, address(this));\n            student = _student;\n            lender = _lender;\n            distributionRate = _rate;\n            thresholdSalary = _threholdSalaryFlowRate;\n            institute = _institute;\n            balance = address(this).balance;\n            isTradeable = _isTradeable;\n            totalTime = _totalTime;\n            timeUnitPaid = _timeUnitPaid;\n        }\n    }\n\n    receive() external payable {\n        require(\n            msg.sender == _lender,\n            \"Only lender can send money to this Contract\"\n        );\n        require(\n            msg.value == 1 ether,\n            \"Only 1 ether can be sent to this contract\"\n        );\n    }\n\n    function approve() external {\n        require(msg.sender == _student, \"Only Student can approve Institute.\");\n        _approval[_institute] = true;\n    }\n\n    function withdraw() external payable {\n        require(\n            msg.sender == _institute,\n            \"Only Institute can withdraw money!!\"\n        );\n        require(_approval[msg.sender], \"withdraw yet not approved by student\");\n        _institute.transfer(1 ether);\n    }\n\n    // Function to set Tradeable Flags\n    function setTradeable(bool isTradeable) external {\n        require(msg.sender == _lender, \"Only lender can make it tradeable\");\n        if (isTradeable == _isTradeable) return;\n        _isTradeable = _isTradeable;\n    }\n\n    function _timeElapsedSince(uint256 _from) internal view returns (uint256) {\n        return uint256(block.timestamp - _from);\n    }\n\n    /// @dev If a new stream is opened, or an existing one is opened\n    function _updateOutflow(bytes calldata ctx)\n        private\n        returns (bytes memory newCtx)\n    {\n        newCtx = ctx;\n        // @dev This will give me the new flowRate, as it is called in after callbacks\n        // Get here the net flow into this contract\n        int96 netFlowRate = _cfa.getNetFlow(_acceptedToken, address(this));\n        (, int96 outFlowRateStudent, , ) = _cfa.getFlow(\n            _acceptedToken,\n            address(this),\n            _student\n        );\n        (uint256 lenderStartTime, int96 outFlowRateLender, , ) = _cfa.getFlow(\n            _acceptedToken,\n            address(this),\n            _lender\n        );\n        int96 inFlowRate = netFlowRate + outFlowRateStudent + outFlowRateLender;\n        if (inFlowRate < 0) inFlowRate = -inFlowRate; // Fixes issue when inFlowRate is negative\n\n        // @dev add thresholdSalary logic in this function\n\n        if (inFlowRate < _threholdSalaryFlowRate) {\n            _lenderRate = int96(0);\n            _studentRate = inFlowRate;\n        } else {\n            _lenderRate = (inFlowRate / int96(100)) * _rate;\n            _studentRate = inFlowRate - _lenderRate;\n        }\n\n        // @dev If inFlowRate === 0, then delete existing flow.\n        if (inFlowRate <= int96(0)) {\n            // If inflow goes to zero delete CFAs\n            // @dev if inFlowRate is zero or negative, delete outflow.\n            (newCtx, ) = _host.callAgreementWithContext(\n                _cfa,\n                abi.encodeWithSelector(\n                    _cfa.deleteFlow.selector,\n                    _acceptedToken,\n                    address(this),\n                    _student,\n                    new bytes(0) // placeholder\n                ),\n                \"0x\",\n                newCtx\n            );\n            if (inFlowRate > _threholdSalaryFlowRate) {\n                (newCtx, ) = _host.callAgreementWithContext(\n                    _cfa,\n                    abi.encodeWithSelector(\n                        _cfa.deleteFlow.selector,\n                        _acceptedToken,\n                        address(this),\n                        _lender,\n                        new bytes(0) // placeholder\n                    ),\n                    \"0x\",\n                    newCtx\n                );\n            }\n\n            // @dev update the time unit paid\n            if (inFlowRate > _threholdSalaryFlowRate && _lenderRate > 0) {\n                _timeUnitPaid =\n                    _timeUnitPaid +\n                    _timeElapsedSince(lenderStartTime);\n            }\n        } else if (outFlowRateStudent != int96(0)) {\n            (newCtx, ) = _host.callAgreementWithContext(\n                _cfa,\n                abi.encodeWithSelector(\n                    _cfa.updateFlow.selector,\n                    _acceptedToken,\n                    _student,\n                    _studentRate,\n                    new bytes(0) // placeholder\n                ),\n                \"0x\",\n                newCtx\n            );\n            if (inFlowRate > _threholdSalaryFlowRate) {\n                (newCtx, ) = _host.callAgreementWithContext(\n                    _cfa,\n                    abi.encodeWithSelector(\n                        _cfa.updateFlow.selector,\n                        _acceptedToken,\n                        _lender,\n                        _lenderRate,\n                        new bytes(0) // placeholder\n                    ),\n                    \"0x\",\n                    newCtx\n                );\n            }\n        } else {\n            // @dev If there is no existing outflow, then create new flow to equal inflow\n            (newCtx, ) = _host.callAgreementWithContext(\n                _cfa,\n                abi.encodeWithSelector(\n                    _cfa.createFlow.selector,\n                    _acceptedToken,\n                    _student,\n                    _studentRate,\n                    new bytes(0) // placeholder\n                ),\n                \"0x\",\n                newCtx\n            );\n            if (inFlowRate > _threholdSalaryFlowRate) {\n                (newCtx, ) = _host.callAgreementWithContext(\n                    _cfa,\n                    abi.encodeWithSelector(\n                        _cfa.createFlow.selector,\n                        _acceptedToken,\n                        _lender,\n                        _lenderRate,\n                        new bytes(0) // placeholder\n                    ),\n                    \"0x\",\n                    newCtx\n                );\n            }\n        }\n    }\n\n    // Make bottom logic to be tradable from lender perspective (Lender can transfer stream to someone else)\n\n    event studentChanged(address student); //what is this?\n\n    // @dev Change the student of the total flow\n    function changeReciever(address payable newstudent) public {\n        // @dev When Changing Reciever only lender needs to be changes.\n        require(msg.sender == _lender, \"Only lender can sell this ISA\");\n        require(newstudent != address(0), \"New student is zero address\");\n        // @dev because our app is registered as final, we can't take downstream apps\n        require(\n            !_host.isApp(ISuperApp(newstudent)),\n            \"New student can not be a superApp\"\n        );\n        if (newstudent == _lender) return;\n        // @dev delete flow to old student\n\n        // _host.callAgreement(\n        //     _cfa,\n        //     abi.encodeWithSelector(\n        //         _cfa.deleteFlow.selector,\n        //         _acceptedToken,\n        //         address(this),\n        //         _student,\n        //         new bytes(0)\n        //     ),\n        //     \"0x\"\n        // );\n        _host.callAgreement(\n            _cfa,\n            abi.encodeWithSelector(\n                _cfa.deleteFlow.selector,\n                _acceptedToken,\n                address(this),\n                _lender,\n                new bytes(0)\n            ),\n            \"0x\"\n        );\n        // Can break here If yes then do it according to rate\n        // @dev create flow to new student\n        _host.callAgreement(\n            _cfa,\n            abi.encodeWithSelector(\n                _cfa.createFlow.selector,\n                _acceptedToken,\n                newstudent,\n                _lenderRate,\n                new bytes(0)\n            ),\n            \"0x\"\n        );\n        //  _host.callAgreement(\n        //     _cfa,\n        //     abi.encodeWithSelector(\n        //         _cfa.createFlow.selector,\n        //         _acceptedToken,\n        //         _student,\n        //         _cfa.getNetFlow(_acceptedToken, address(this)),\n        //         new bytes(0)\n        //     ),\n        //     \"0x\"\n        // );\n        // @dev set global student to new student\n        _student = newstudent;\n\n        emit studentChanged(_student);\n    }\n\n    /**************************************************************************\n     * SuperApp callbacks\n     *************************************************************************/\n\n    function afterAgreementCreated(\n        ISuperToken _superToken,\n        address _agreementClass,\n        bytes32, // _agreementId,\n        bytes calldata, /*_agreementData*/\n        bytes calldata, // _cbdata,\n        bytes calldata _ctx\n    )\n        external\n        override\n        onlyExpected(_superToken, _agreementClass)\n        onlyHost\n        returns (bytes memory newCtx)\n    {\n        return _updateOutflow(_ctx);\n    }\n\n    function afterAgreementUpdated(\n        ISuperToken _superToken,\n        address _agreementClass,\n        bytes32, //_agreementId,\n        bytes calldata, /*_agreementData*/\n        bytes calldata, //_cbdata,\n        bytes calldata _ctx\n    )\n        external\n        override\n        onlyExpected(_superToken, _agreementClass)\n        onlyHost\n        returns (bytes memory newCtx)\n    {\n        return _updateOutflow(_ctx);\n    }\n\n    function afterAgreementTerminated(\n        ISuperToken _superToken,\n        address _agreementClass,\n        bytes32, //_agreementId,\n        bytes calldata, /*_agreementData*/\n        bytes calldata, //_cbdata,\n        bytes calldata _ctx\n    ) external override onlyHost returns (bytes memory newCtx) {\n        // According to the app basic law, we should never revert in a termination callback\n        if (!_isSameToken(_superToken) || !_isCFAv1(_agreementClass))\n            return _ctx;\n        return _updateOutflow(_ctx);\n    }\n\n    function _isSameToken(ISuperToken superToken) private view returns (bool) {\n        return address(superToken) == address(_acceptedToken);\n    }\n\n    function _isCFAv1(address agreementClass) private view returns (bool) {\n        return\n            ISuperAgreement(agreementClass).agreementType() ==\n            keccak256(\n                \"org.superfluid-finance.agreements.ConstantFlowAgreement.v1\"\n            );\n    }\n\n    modifier onlyHost() {\n        require(msg.sender == address(_host), \"ISA: support only one host\");\n        _;\n    }\n\n    modifier onlyExpected(ISuperToken superToken, address agreementClass) {\n        require(_isSameToken(superToken), \"ISA: not accepted token\");\n        require(_isCFAv1(agreementClass), \"ISA: only CFAv1 supported\");\n        _;\n    }\n}\n",
  "sourcePath": "/home/prix/Documents/myProjects/devfolio/ethodyssey/contracts/ISA.sol",
  "compiler": {
    "name": "solc",
    "version": "0.7.6+commit.7338295f.Emscripten.clang"
  },
  "schemaVersion": "3.4.1",
  "updatedAt": "2021-07-31T07:51:18.249Z",
  "networkType": "ethereum",
  "devdoc": {
    "kind": "dev",
    "methods": {},
    "version": 1
  },
  "userdoc": {
    "kind": "user",
    "methods": {},
    "version": 1
  }
}