{
  "contractName": "ISA",
  "abi": [
    {
      "inputs": [
        {
          "internalType": "contract ISuperfluid",
          "name": "host",
          "type": "address"
        },
        {
          "internalType": "contract IConstantFlowAgreementV1",
          "name": "cfa",
          "type": "address"
        },
        {
          "internalType": "contract ISuperToken",
          "name": "acceptedToken",
          "type": "address"
        },
        {
          "internalType": "address payable",
          "name": "student",
          "type": "address"
        },
        {
          "internalType": "address payable",
          "name": "lender",
          "type": "address"
        },
        {
          "internalType": "address payable",
          "name": "institute",
          "type": "address"
        },
        {
          "internalType": "int96",
          "name": "thresholdSalary",
          "type": "int96"
        },
        {
          "internalType": "uint256",
          "name": "totalTime",
          "type": "uint256"
        },
        {
          "internalType": "int96",
          "name": "rate",
          "type": "int96"
        }
      ],
      "stateMutability": "nonpayable",
      "type": "constructor"
    },
    {
      "anonymous": false,
      "inputs": [
        {
          "indexed": false,
          "internalType": "address",
          "name": "lender",
          "type": "address"
        }
      ],
      "name": "lenderChanged",
      "type": "event"
    },
    {
      "inputs": [
        {
          "internalType": "contract ISuperToken",
          "name": "",
          "type": "address"
        },
        {
          "internalType": "address",
          "name": "",
          "type": "address"
        },
        {
          "internalType": "bytes32",
          "name": "",
          "type": "bytes32"
        },
        {
          "internalType": "bytes",
          "name": "",
          "type": "bytes"
        },
        {
          "internalType": "bytes",
          "name": "",
          "type": "bytes"
        }
      ],
      "name": "beforeAgreementCreated",
      "outputs": [
        {
          "internalType": "bytes",
          "name": "",
          "type": "bytes"
        }
      ],
      "stateMutability": "view",
      "type": "function"
    },
    {
      "inputs": [
        {
          "internalType": "contract ISuperToken",
          "name": "",
          "type": "address"
        },
        {
          "internalType": "address",
          "name": "",
          "type": "address"
        },
        {
          "internalType": "bytes32",
          "name": "",
          "type": "bytes32"
        },
        {
          "internalType": "bytes",
          "name": "",
          "type": "bytes"
        },
        {
          "internalType": "bytes",
          "name": "",
          "type": "bytes"
        }
      ],
      "name": "beforeAgreementTerminated",
      "outputs": [
        {
          "internalType": "bytes",
          "name": "",
          "type": "bytes"
        }
      ],
      "stateMutability": "view",
      "type": "function"
    },
    {
      "inputs": [
        {
          "internalType": "contract ISuperToken",
          "name": "",
          "type": "address"
        },
        {
          "internalType": "address",
          "name": "",
          "type": "address"
        },
        {
          "internalType": "bytes32",
          "name": "",
          "type": "bytes32"
        },
        {
          "internalType": "bytes",
          "name": "",
          "type": "bytes"
        },
        {
          "internalType": "bytes",
          "name": "",
          "type": "bytes"
        }
      ],
      "name": "beforeAgreementUpdated",
      "outputs": [
        {
          "internalType": "bytes",
          "name": "",
          "type": "bytes"
        }
      ],
      "stateMutability": "view",
      "type": "function"
    },
    {
      "stateMutability": "payable",
      "type": "receive"
    },
    {
      "inputs": [],
      "name": "contractParties",
      "outputs": [
        {
          "internalType": "address",
          "name": "student",
          "type": "address"
        },
        {
          "internalType": "address",
          "name": "lender",
          "type": "address"
        },
        {
          "internalType": "address",
          "name": "institute",
          "type": "address"
        }
      ],
      "stateMutability": "view",
      "type": "function"
    },
    {
      "inputs": [],
      "name": "contractRates",
      "outputs": [
        {
          "internalType": "int96",
          "name": "distributionRate",
          "type": "int96"
        },
        {
          "internalType": "int96",
          "name": "thresholdSalary",
          "type": "int96"
        },
        {
          "internalType": "contract ISuperToken",
          "name": "acceptedToken",
          "type": "address"
        },
        {
          "internalType": "bool",
          "name": "isTradeable",
          "type": "bool"
        },
        {
          "internalType": "uint256",
          "name": "tradePrice",
          "type": "uint256"
        }
      ],
      "stateMutability": "view",
      "type": "function"
    },
    {
      "inputs": [],
      "name": "contractFlows",
      "outputs": [
        {
          "internalType": "int96",
          "name": "studentflowRate",
          "type": "int96"
        },
        {
          "internalType": "int96",
          "name": "lenderflowRate",
          "type": "int96"
        },
        {
          "internalType": "int96",
          "name": "netFlowISA",
          "type": "int96"
        }
      ],
      "stateMutability": "view",
      "type": "function"
    },
    {
      "inputs": [],
      "name": "contractBalances",
      "outputs": [
        {
          "internalType": "uint256",
          "name": "totalTime",
          "type": "uint256"
        },
        {
          "internalType": "uint256",
          "name": "timeUnitPaid",
          "type": "uint256"
        },
        {
          "internalType": "int96",
          "name": "currentStudentRate",
          "type": "int96"
        },
        {
          "internalType": "int96",
          "name": "currentLenderRate",
          "type": "int96"
        }
      ],
      "stateMutability": "view",
      "type": "function"
    },
    {
      "inputs": [],
      "name": "currentState",
      "outputs": [
        {
          "internalType": "uint256",
          "name": "startTimeStudent",
          "type": "uint256"
        },
        {
          "internalType": "uint256",
          "name": "startTimeLender",
          "type": "uint256"
        },
        {
          "internalType": "address",
          "name": "student",
          "type": "address"
        },
        {
          "internalType": "address",
          "name": "lender",
          "type": "address"
        },
        {
          "internalType": "int96",
          "name": "studentflowRate",
          "type": "int96"
        },
        {
          "internalType": "int96",
          "name": "lenderflowRate",
          "type": "int96"
        },
        {
          "internalType": "int96",
          "name": "netFlowISA",
          "type": "int96"
        },
        {
          "internalType": "int96",
          "name": "distributionRate",
          "type": "int96"
        },
        {
          "internalType": "int96",
          "name": "thresholdSalary",
          "type": "int96"
        },
        {
          "internalType": "address",
          "name": "institute",
          "type": "address"
        },
        {
          "internalType": "uint256",
          "name": "balance",
          "type": "uint256"
        },
        {
          "internalType": "bool",
          "name": "isTradeable",
          "type": "bool"
        },
        {
          "internalType": "uint256",
          "name": "totalTime",
          "type": "uint256"
        },
        {
          "internalType": "uint256",
          "name": "timeUnitPaid",
          "type": "uint256"
        }
      ],
      "stateMutability": "view",
      "type": "function"
    },
    {
      "inputs": [],
      "name": "approve",
      "outputs": [],
      "stateMutability": "nonpayable",
      "type": "function"
    },
    {
      "inputs": [],
      "name": "withdraw",
      "outputs": [],
      "stateMutability": "payable",
      "type": "function"
    },
    {
      "inputs": [
        {
          "internalType": "bool",
          "name": "isTradeable",
          "type": "bool"
        }
      ],
      "name": "setTradeable",
      "outputs": [],
      "stateMutability": "nonpayable",
      "type": "function"
    },
    {
      "inputs": [
        {
          "internalType": "uint256",
          "name": "price",
          "type": "uint256"
        }
      ],
      "name": "setTradePrice",
      "outputs": [],
      "stateMutability": "nonpayable",
      "type": "function"
    },
    {
      "inputs": [
        {
          "internalType": "address payable",
          "name": "newLender",
          "type": "address"
        }
      ],
      "name": "changeReciever",
      "outputs": [],
      "stateMutability": "nonpayable",
      "type": "function"
    },
    {
      "inputs": [
        {
          "internalType": "contract ISuperToken",
          "name": "_superToken",
          "type": "address"
        },
        {
          "internalType": "address",
          "name": "_agreementClass",
          "type": "address"
        },
        {
          "internalType": "bytes32",
          "name": "",
          "type": "bytes32"
        },
        {
          "internalType": "bytes",
          "name": "",
          "type": "bytes"
        },
        {
          "internalType": "bytes",
          "name": "",
          "type": "bytes"
        },
        {
          "internalType": "bytes",
          "name": "_ctx",
          "type": "bytes"
        }
      ],
      "name": "afterAgreementCreated",
      "outputs": [
        {
          "internalType": "bytes",
          "name": "newCtx",
          "type": "bytes"
        }
      ],
      "stateMutability": "nonpayable",
      "type": "function"
    },
    {
      "inputs": [
        {
          "internalType": "contract ISuperToken",
          "name": "_superToken",
          "type": "address"
        },
        {
          "internalType": "address",
          "name": "_agreementClass",
          "type": "address"
        },
        {
          "internalType": "bytes32",
          "name": "",
          "type": "bytes32"
        },
        {
          "internalType": "bytes",
          "name": "",
          "type": "bytes"
        },
        {
          "internalType": "bytes",
          "name": "",
          "type": "bytes"
        },
        {
          "internalType": "bytes",
          "name": "_ctx",
          "type": "bytes"
        }
      ],
      "name": "afterAgreementUpdated",
      "outputs": [
        {
          "internalType": "bytes",
          "name": "newCtx",
          "type": "bytes"
        }
      ],
      "stateMutability": "nonpayable",
      "type": "function"
    },
    {
      "inputs": [
        {
          "internalType": "contract ISuperToken",
          "name": "_superToken",
          "type": "address"
        },
        {
          "internalType": "address",
          "name": "_agreementClass",
          "type": "address"
        },
        {
          "internalType": "bytes32",
          "name": "",
          "type": "bytes32"
        },
        {
          "internalType": "bytes",
          "name": "",
          "type": "bytes"
        },
        {
          "internalType": "bytes",
          "name": "",
          "type": "bytes"
        },
        {
          "internalType": "bytes",
          "name": "_ctx",
          "type": "bytes"
        }
      ],
      "name": "afterAgreementTerminated",
      "outputs": [
        {
          "internalType": "bytes",
          "name": "newCtx",
          "type": "bytes"
        }
      ],
      "stateMutability": "nonpayable",
      "type": "function"
    }
  ],
  "bytecode": "0x60806040523480156200001157600080fd5b5060405162006c6b38038062006c6b83398181016040526101208110156200003857600080fd5b81019080805190602001909291908051906020019092919080519060200190929190805190602001909291908051906020019092919080519060200190929190805190602001909291908051906020019092919080519060200190929190505050600073ffffffffffffffffffffffffffffffffffffffff168973ffffffffffffffffffffffffffffffffffffffff161415620000d157fe5b600073ffffffffffffffffffffffffffffffffffffffff168873ffffffffffffffffffffffffffffffffffffffff1614156200010957fe5b600073ffffffffffffffffffffffffffffffffffffffff168773ffffffffffffffffffffffffffffffffffffffff1614156200014157fe5b600073ffffffffffffffffffffffffffffffffffffffff168673ffffffffffffffffffffffffffffffffffffffff1614156200017957fe5b600073ffffffffffffffffffffffffffffffffffffffff168573ffffffffffffffffffffffffffffffffffffffff161415620001b157fe5b600a81600b0b138015620001c85750605081600b0b125b620001cf57fe5b600082118015620001e457506303c267008211155b620001eb57fe5b886000806101000a81548173ffffffffffffffffffffffffffffffffffffffff021916908373ffffffffffffffffffffffffffffffffffffffff16021790555087600160006101000a81548173ffffffffffffffffffffffffffffffffffffffff021916908373ffffffffffffffffffffffffffffffffffffffff16021790555086600260006101000a81548173ffffffffffffffffffffffffffffffffffffffff021916908373ffffffffffffffffffffffffffffffffffffffff16021790555085600360006101000a81548173ffffffffffffffffffffffffffffffffffffffff021916908373ffffffffffffffffffffffffffffffffffffffff16021790555084600460006101000a81548173ffffffffffffffffffffffffffffffffffffffff021916908373ffffffffffffffffffffffffffffffffffffffff16021790555080600560146101000a8154816bffffffffffffffffffffffff0219169083600b0b6bffffffffffffffffffffffff16021790555083600560006101000a81548173ffffffffffffffffffffffffffffffffffffffff021916908373ffffffffffffffffffffffffffffffffffffffff16021790555082600760006101000a8154816bffffffffffffffffffffffff0219169083600b0b6bffffffffffffffffffffffff16021790555060006007600c6101000a81548160ff0219169083151502179055506000600a819055508160098190555060006410000000006404000000006401000000006001171717905060008054906101000a900473ffffffffffffffffffffffffffffffffffffffff1673ffffffffffffffffffffffffffffffffffffffff1663ad3915c8826040518263ffffffff1660e01b815260040180828152602001915050600060405180830381600087803b1580156200049157600080fd5b505af1158015620004a6573d6000803e3d6000fd5b50505050505050505050505050506167a780620004c46000396000f3fe6080604052600436106100f75760003560e01c806355cf2afe1161008a578063884d1f4011610059578063884d1f4014610cdd578063ab0921a314610e7b578063d86ed3e514610eb6578063ea266178146110a957610341565b806355cf2afe14610a5b5780635e3c327414610a9d5780635f9e7d7714610b025780637f002ffe14610ca057610341565b806330d9c915116100c657806330d9c9151461066f5780633ccfd60b1461080d578063438205201461081757806353c11f991461086857610341565b80630c3f6acf1461034657806312424e3f1461041f5780632163885a14610436578063230dbd291461047c57610341565b3661034157600460009054906101000a900473ffffffffffffffffffffffffffffffffffffffff1673ffffffffffffffffffffffffffffffffffffffff163373ffffffffffffffffffffffffffffffffffffffff16146102de576007600c9054906101000a900460ff166101b6576040517f08c379a000000000000000000000000000000000000000000000000000000000815260040180806020018281038252602381526020018061674f6023913960400191505060405180910390fd5b600854341461022d576040517f08c379a00000000000000000000000000000000000000000000000000000000081526004018080602001828103825260188152602001807f4e6f74204578616374206d6f656e792050726f7669646564000000000000000081525060200191505060405180910390fd5b600460009054906101000a900473ffffffffffffffffffffffffffffffffffffffff1673ffffffffffffffffffffffffffffffffffffffff166108fc6008549081150290604051600060405180830381858888f19350505050158015610297573d6000803e3d6000fd5b5033600460006101000a81548173ffffffffffffffffffffffffffffffffffffffff021916908373ffffffffffffffffffffffffffffffffffffffff16021790555061033f565b670de0b6b3a7640000341461033e576040517f08c379a00000000000000000000000000000000000000000000000000000000081526004018080602001828103825260298152602001806166d36029913960400191505060405180910390fd5b5b005b600080fd5b34801561035257600080fd5b5061035b611124565b604051808f81526020018e81526020018d73ffffffffffffffffffffffffffffffffffffffff1681526020018c73ffffffffffffffffffffffffffffffffffffffff1681526020018b600b0b81526020018a600b0b815260200189600b0b815260200188600b0b815260200187600b0b81526020018673ffffffffffffffffffffffffffffffffffffffff16815260200185815260200184151581526020018381526020018281526020019e50505050505050505050505050505060405180910390f35b34801561042b57600080fd5b50610434611632565b005b34801561044257600080fd5b5061044b611754565b6040518085815260200184815260200183600b0b815260200182600b0b815260200194505050505060405180910390f35b34801561048857600080fd5b506105f4600480360360c081101561049f57600080fd5b81019080803573ffffffffffffffffffffffffffffffffffffffff169060200190929190803573ffffffffffffffffffffffffffffffffffffffff169060200190929190803590602001909291908035906020019064010000000081111561050657600080fd5b82018360208201111561051857600080fd5b8035906020019184600183028401116401000000008311171561053a57600080fd5b90919293919293908035906020019064010000000081111561055b57600080fd5b82018360208201111561056d57600080fd5b8035906020019184600183028401116401000000008311171561058f57600080fd5b9091929391929390803590602001906401000000008111156105b057600080fd5b8201836020820111156105c257600080fd5b803590602001918460018302840111640100000000831117156105e457600080fd5b909192939192939050505061178e565b6040518080602001828103825283818151815260200191508051906020019080838360005b83811015610634578082015181840152602081019050610619565b50505050905090810190601f1680156106615780820380516001836020036101000a031916815260200191505b509250505060405180910390f35b34801561067b57600080fd5b50610792600480360360a081101561069257600080fd5b81019080803573ffffffffffffffffffffffffffffffffffffffff169060200190929190803573ffffffffffffffffffffffffffffffffffffffff16906020019092919080359060200190929190803590602001906401000000008111156106f957600080fd5b82018360208201111561070b57600080fd5b8035906020019184600183028401116401000000008311171561072d57600080fd5b90919293919293908035906020019064010000000081111561074e57600080fd5b82018360208201111561076057600080fd5b8035906020019184600183028401116401000000008311171561078257600080fd5b9091929391929390505050611964565b6040518080602001828103825283818151815260200191508051906020019080838360005b838110156107d25780820151818401526020810190506107b7565b50505050905090810190601f1680156107ff5780820380516001836020036101000a031916815260200191505b509250505060405180910390f35b6108156119b7565b005b34801561082357600080fd5b506108666004803603602081101561083a57600080fd5b81019080803573ffffffffffffffffffffffffffffffffffffffff169060200190929190505050611b72565b005b34801561087457600080fd5b506109e0600480360360c081101561088b57600080fd5b81019080803573ffffffffffffffffffffffffffffffffffffffff169060200190929190803573ffffffffffffffffffffffffffffffffffffffff16906020019092919080359060200190929190803590602001906401000000008111156108f257600080fd5b82018360208201111561090457600080fd5b8035906020019184600183028401116401000000008311171561092657600080fd5b90919293919293908035906020019064010000000081111561094757600080fd5b82018360208201111561095957600080fd5b8035906020019184600183028401116401000000008311171561097b57600080fd5b90919293919293908035906020019064010000000081111561099c57600080fd5b8201836020820111156109ae57600080fd5b803590602001918460018302840111640100000000831117156109d057600080fd5b9091929391929390505050612971565b6040518080602001828103825283818151815260200191508051906020019080838360005b83811015610a20578082015181840152602081019050610a05565b50505050905090810190601f168015610a4d5780820380516001836020036101000a031916815260200191505b509250505060405180910390f35b348015610a6757600080fd5b50610a70612aba565b6040518084600b0b815260200183600b0b815260200182600b0b8152602001935050505060405180910390f35b348015610aa957600080fd5b50610ab2612ea4565b6040518086600b0b815260200185600b0b81526020018473ffffffffffffffffffffffffffffffffffffffff16815260200183151581526020018281526020019550505050505060405180910390f35b348015610b0e57600080fd5b50610c25600480360360a0811015610b2557600080fd5b81019080803573ffffffffffffffffffffffffffffffffffffffff169060200190929190803573ffffffffffffffffffffffffffffffffffffffff1690602001909291908035906020019092919080359060200190640100000000811115610b8c57600080fd5b820183602082011115610b9e57600080fd5b80359060200191846001830284011164010000000083111715610bc057600080fd5b909192939192939080359060200190640100000000811115610be157600080fd5b820183602082011115610bf357600080fd5b80359060200191846001830284011164010000000083111715610c1557600080fd5b9091929391929390505050612f13565b6040518080602001828103825283818151815260200191508051906020019080838360005b83811015610c65578082015181840152602081019050610c4a565b50505050905090810190601f168015610c925780820380516001836020036101000a031916815260200191505b509250505060405180910390f35b348015610cac57600080fd5b50610cdb60048036036020811015610cc357600080fd5b81019080803515159060200190929190505050612f66565b005b348015610ce957600080fd5b50610e00600480360360a0811015610d0057600080fd5b81019080803573ffffffffffffffffffffffffffffffffffffffff169060200190929190803573ffffffffffffffffffffffffffffffffffffffff1690602001909291908035906020019092919080359060200190640100000000811115610d6757600080fd5b820183602082011115610d7957600080fd5b80359060200191846001830284011164010000000083111715610d9b57600080fd5b909192939192939080359060200190640100000000811115610dbc57600080fd5b820183602082011115610dce57600080fd5b80359060200191846001830284011164010000000083111715610df057600080fd5b9091929391929390505050613029565b6040518080602001828103825283818151815260200191508051906020019080838360005b83811015610e40578082015181840152602081019050610e25565b50505050905090810190601f168015610e6d5780820380516001836020036101000a031916815260200191505b509250505060405180910390f35b348015610e8757600080fd5b50610eb460048036036020811015610e9e57600080fd5b810190808035906020019092919050505061307c565b005b348015610ec257600080fd5b5061102e600480360360c0811015610ed957600080fd5b81019080803573ffffffffffffffffffffffffffffffffffffffff169060200190929190803573ffffffffffffffffffffffffffffffffffffffff1690602001909291908035906020019092919080359060200190640100000000811115610f4057600080fd5b820183602082011115610f5257600080fd5b80359060200191846001830284011164010000000083111715610f7457600080fd5b909192939192939080359060200190640100000000811115610f9557600080fd5b820183602082011115610fa757600080fd5b80359060200191846001830284011164010000000083111715610fc957600080fd5b909192939192939080359060200190640100000000811115610fea57600080fd5b820183602082011115610ffc57600080fd5b8035906020019184600183028401116401000000008311171561101e57600080fd5b909192939192939050505061313c565b6040518080602001828103825283818151815260200191508051906020019080838360005b8381101561106e578082015181840152602081019050611053565b50505050905090810190601f16801561109b5780820380516001836020036101000a031916815260200191505b509250505060405180910390f35b3480156110b557600080fd5b506110be613312565b604051808473ffffffffffffffffffffffffffffffffffffffff1681526020018373ffffffffffffffffffffffffffffffffffffffff1681526020018273ffffffffffffffffffffffffffffffffffffffff168152602001935050505060405180910390f35b600080600080600080600080600080600080600080600073ffffffffffffffffffffffffffffffffffffffff16600360009054906101000a900473ffffffffffffffffffffffffffffffffffffffff1673ffffffffffffffffffffffffffffffffffffffff161461162257600160009054906101000a900473ffffffffffffffffffffffffffffffffffffffff1673ffffffffffffffffffffffffffffffffffffffff1663e6a1e888600260009054906101000a900473ffffffffffffffffffffffffffffffffffffffff1630600360009054906101000a900473ffffffffffffffffffffffffffffffffffffffff166040518463ffffffff1660e01b8152600401808473ffffffffffffffffffffffffffffffffffffffff1681526020018373ffffffffffffffffffffffffffffffffffffffff1681526020018273ffffffffffffffffffffffffffffffffffffffff168152602001935050505060806040518083038186803b15801561129857600080fd5b505afa1580156112ac573d6000803e3d6000fd5b505050506040513d60808110156112c257600080fd5b8101908080519060200190929190805190602001909291908051906020019092919080519060200190929190505050905050809b50819f505050600160009054906101000a900473ffffffffffffffffffffffffffffffffffffffff1673ffffffffffffffffffffffffffffffffffffffff1663e6a1e888600260009054906101000a900473ffffffffffffffffffffffffffffffffffffffff1630600460009054906101000a900473ffffffffffffffffffffffffffffffffffffffff166040518463ffffffff1660e01b8152600401808473ffffffffffffffffffffffffffffffffffffffff1681526020018373ffffffffffffffffffffffffffffffffffffffff1681526020018273ffffffffffffffffffffffffffffffffffffffff168152602001935050505060806040518083038186803b15801561140557600080fd5b505afa158015611419573d6000803e3d6000fd5b505050506040513d608081101561142f57600080fd5b8101908080519060200190929190805190602001909291908051906020019092919080519060200190929190505050905050809a50819e505050600160009054906101000a900473ffffffffffffffffffffffffffffffffffffffff1673ffffffffffffffffffffffffffffffffffffffff1663e8e7e2d1600260009054906101000a900473ffffffffffffffffffffffffffffffffffffffff16306040518363ffffffff1660e01b8152600401808373ffffffffffffffffffffffffffffffffffffffff1681526020018273ffffffffffffffffffffffffffffffffffffffff1681526020019250505060206040518083038186803b15801561153257600080fd5b505afa158015611546573d6000803e3d6000fd5b505050506040513d602081101561155c57600080fd5b81019080805190602001909291905050509750600360009054906101000a900473ffffffffffffffffffffffffffffffffffffffff169b50600460009054906101000a900473ffffffffffffffffffffffffffffffffffffffff169a50600560149054906101000a9004600b0b9650600760009054906101000a9004600b0b9550600560009054906101000a900473ffffffffffffffffffffffffffffffffffffffff1694504793506007600c9054906101000a900460ff1692506009549150600a5490505b909192939495969798999a9b9c9d565b600360009054906101000a900473ffffffffffffffffffffffffffffffffffffffff1673ffffffffffffffffffffffffffffffffffffffff163373ffffffffffffffffffffffffffffffffffffffff16146116d8576040517f08c379a000000000000000000000000000000000000000000000000000000000815260040180806020018281038252602381526020018061665e6023913960400191505060405180910390fd5b6001600b6000600560009054906101000a900473ffffffffffffffffffffffffffffffffffffffff1673ffffffffffffffffffffffffffffffffffffffff1673ffffffffffffffffffffffffffffffffffffffff16815260200190815260200160002060006101000a81548160ff021916908315150217905550565b6000806000806009549350600a5492506006600c9054906101000a9004600b0b9150600660009054906101000a9004600b0b905090919293565b6060898961179b8261338b565b61180d576040517f08c379a00000000000000000000000000000000000000000000000000000000081526004018080602001828103825260178152602001807f4953413a206e6f7420616363657074656420746f6b656e00000000000000000081525060200191505060405180910390fd5b611816816133e5565b611888576040517f08c379a00000000000000000000000000000000000000000000000000000000081526004018080602001828103825260198152602001807f4953413a206f6e6c7920434641763120737570706f727465640000000000000081525060200191505060405180910390fd5b60008054906101000a900473ffffffffffffffffffffffffffffffffffffffff1673ffffffffffffffffffffffffffffffffffffffff163373ffffffffffffffffffffffffffffffffffffffff1614611949576040517f08c379a000000000000000000000000000000000000000000000000000000000815260040180806020018281038252601a8152602001807f4953413a20737570706f7274206f6e6c79206f6e6520686f737400000000000081525060200191505060405180910390fd5b6119538585613491565b925050509998505050505050505050565b60606040517f08c379a000000000000000000000000000000000000000000000000000000000815260040180806020018281038252602f815260200180616720602f913960400191505060405180910390fd5b600560009054906101000a900473ffffffffffffffffffffffffffffffffffffffff1673ffffffffffffffffffffffffffffffffffffffff163373ffffffffffffffffffffffffffffffffffffffff1614611a5d576040517f08c379a00000000000000000000000000000000000000000000000000000000081526004018080602001828103825260238152602001806166816023913960400191505060405180910390fd5b600b60003373ffffffffffffffffffffffffffffffffffffffff1673ffffffffffffffffffffffffffffffffffffffff16815260200190815260200160002060009054906101000a900460ff16611aff576040517f08c379a00000000000000000000000000000000000000000000000000000000081526004018080602001828103825260248152602001806166fc6024913960400191505060405180910390fd5b600560009054906101000a900473ffffffffffffffffffffffffffffffffffffffff1673ffffffffffffffffffffffffffffffffffffffff166108fc670de0b6b3a76400009081150290604051600060405180830381858888f19350505050158015611b6f573d6000803e3d6000fd5b50565b600460009054906101000a900473ffffffffffffffffffffffffffffffffffffffff1673ffffffffffffffffffffffffffffffffffffffff163373ffffffffffffffffffffffffffffffffffffffff1614611c35576040517f08c379a000000000000000000000000000000000000000000000000000000000815260040180806020018281038252601d8152602001807f4f6e6c79206c656e6465722063616e2073656c6c20746869732049534100000081525060200191505060405180910390fd5b600360009054906101000a900473ffffffffffffffffffffffffffffffffffffffff1673ffffffffffffffffffffffffffffffffffffffff16600460009054906101000a900473ffffffffffffffffffffffffffffffffffffffff1673ffffffffffffffffffffffffffffffffffffffff161415611d1b576040517f08c379a00000000000000000000000000000000000000000000000000000000081526004018080602001828103825260178152602001807f53747564656e742063616e2774206265206c656e64657200000000000000000081525060200191505060405180910390fd5b600073ffffffffffffffffffffffffffffffffffffffff168173ffffffffffffffffffffffffffffffffffffffff161415611dbe576040517f08c379a000000000000000000000000000000000000000000000000000000000815260040180806020018281038252601a8152602001807f4e6577206c656e646572206973207a65726f206164647265737300000000000081525060200191505060405180910390fd5b60008054906101000a900473ffffffffffffffffffffffffffffffffffffffff1673ffffffffffffffffffffffffffffffffffffffff16633ca3ad4e826040518263ffffffff1660e01b8152600401808273ffffffffffffffffffffffffffffffffffffffff16815260200191505060206040518083038186803b158015611e4557600080fd5b505afa158015611e59573d6000803e3d6000fd5b505050506040513d6020811015611e6f57600080fd5b810190808051906020019092919050505015611ef3576040517f08c379a00000000000000000000000000000000000000000000000000000000081526004018080602001828103825260208152602001807f4e6577206c656e6465722063616e206e6f74206265206120737570657241707081525060200191505060405180910390fd5b600460009054906101000a900473ffffffffffffffffffffffffffffffffffffffff1673ffffffffffffffffffffffffffffffffffffffff168173ffffffffffffffffffffffffffffffffffffffff161415611f4e5761296e565b611f56616467565b156128bd57600080600160009054906101000a900473ffffffffffffffffffffffffffffffffffffffff1673ffffffffffffffffffffffffffffffffffffffff1663e6a1e888600260009054906101000a900473ffffffffffffffffffffffffffffffffffffffff1630600460009054906101000a900473ffffffffffffffffffffffffffffffffffffffff166040518463ffffffff1660e01b8152600401808473ffffffffffffffffffffffffffffffffffffffff1681526020018373ffffffffffffffffffffffffffffffffffffffff1681526020018273ffffffffffffffffffffffffffffffffffffffff168152602001935050505060806040518083038186803b15801561206757600080fd5b505afa15801561207b573d6000803e3d6000fd5b505050506040513d608081101561209157600080fd5b8101908080519060200190929190805190602001909291908051906020019092919080519060200190929190505050505091509150814203600a5401600a8190555060008054906101000a900473ffffffffffffffffffffffffffffffffffffffff1673ffffffffffffffffffffffffffffffffffffffff166339255d5b600160009054906101000a900473ffffffffffffffffffffffffffffffffffffffff1663b4b333c660e01b600260009054906101000a900473ffffffffffffffffffffffffffffffffffffffff1630600460009054906101000a900473ffffffffffffffffffffffffffffffffffffffff16600067ffffffffffffffff8111801561219957600080fd5b506040519080825280601f01601f1916602001820160405280156121cc5781602001600182028036833780820191505090505b50604051602401808573ffffffffffffffffffffffffffffffffffffffff1681526020018473ffffffffffffffffffffffffffffffffffffffff1681526020018373ffffffffffffffffffffffffffffffffffffffff16815260200180602001828103825283818151815260200191508051906020019080838360005b83811015612264578082015181840152602081019050612249565b50505050905090810190601f1680156122915780820380516001836020036101000a031916815260200191505b5095505050505050604051602081830303815290604052907bffffffffffffffffffffffffffffffffffffffffffffffffffffffff19166020820180517bffffffffffffffffffffffffffffffffffffffffffffffffffffffff83818316178352505050506040518363ffffffff1660e01b8152600401808373ffffffffffffffffffffffffffffffffffffffff1681526020018060200180602001838103835284818151815260200191508051906020019080838360005b8381101561236557808201518184015260208101905061234a565b50505050905090810190601f1680156123925780820380516001836020036101000a031916815260200191505b50838103825260028152602001807f3078000000000000000000000000000000000000000000000000000000000000815250602001945050505050600060405180830381600087803b1580156123e757600080fd5b505af11580156123fb573d6000803e3d6000fd5b505050506040513d6000823e3d601f19601f82011682018060405250602081101561242557600080fd5b810190808051604051939291908464010000000082111561244557600080fd5b8382019150602082018581111561245b57600080fd5b825186600182028301116401000000008211171561247857600080fd5b8083526020830192505050908051906020019080838360005b838110156124ac578082015181840152602081019050612491565b50505050905090810190601f1680156124d95780820380516001836020036101000a031916815260200191505b506040525050505060008054906101000a900473ffffffffffffffffffffffffffffffffffffffff1673ffffffffffffffffffffffffffffffffffffffff166339255d5b600160009054906101000a900473ffffffffffffffffffffffffffffffffffffffff166362fc305e60e01b600260009054906101000a900473ffffffffffffffffffffffffffffffffffffffff168786600067ffffffffffffffff8111801561258557600080fd5b506040519080825280601f01601f1916602001820160405280156125b85781602001600182028036833780820191505090505b50604051602401808573ffffffffffffffffffffffffffffffffffffffff1681526020018473ffffffffffffffffffffffffffffffffffffffff16815260200183600b0b815260200180602001828103825283818151815260200191508051906020019080838360005b8381101561263d578082015181840152602081019050612622565b50505050905090810190601f16801561266a5780820380516001836020036101000a031916815260200191505b5095505050505050604051602081830303815290604052907bffffffffffffffffffffffffffffffffffffffffffffffffffffffff19166020820180517bffffffffffffffffffffffffffffffffffffffffffffffffffffffff83818316178352505050506040518363ffffffff1660e01b8152600401808373ffffffffffffffffffffffffffffffffffffffff1681526020018060200180602001838103835284818151815260200191508051906020019080838360005b8381101561273e578082015181840152602081019050612723565b50505050905090810190601f16801561276b5780820380516001836020036101000a031916815260200191505b50838103825260028152602001807f3078000000000000000000000000000000000000000000000000000000000000815250602001945050505050600060405180830381600087803b1580156127c057600080fd5b505af11580156127d4573d6000803e3d6000fd5b505050506040513d6000823e3d601f19601f8201168201806040525060208110156127fe57600080fd5b810190808051604051939291908464010000000082111561281e57600080fd5b8382019150602082018581111561283457600080fd5b825186600182028301116401000000008211171561285157600080fd5b8083526020830192505050908051906020019080838360005b8381101561288557808201518184015260208101905061286a565b50505050905090810190601f1680156128b25780820380516001836020036101000a031916815260200191505b506040525050505050505b80600460006101000a81548173ffffffffffffffffffffffffffffffffffffffff021916908373ffffffffffffffffffffffffffffffffffffffff1602179055507fe0fabbc22e4fbd27b3cb2f4255174dabaa5fea3871d02a1ccc13aae4028c02a8600460009054906101000a900473ffffffffffffffffffffffffffffffffffffffff16604051808273ffffffffffffffffffffffffffffffffffffffff16815260200191505060405180910390a15b50565b606060008054906101000a900473ffffffffffffffffffffffffffffffffffffffff1673ffffffffffffffffffffffffffffffffffffffff163373ffffffffffffffffffffffffffffffffffffffff1614612a34576040517f08c379a000000000000000000000000000000000000000000000000000000000815260040180806020018281038252601a8152602001807f4953413a20737570706f7274206f6e6c79206f6e6520686f737400000000000081525060200191505060405180910390fd5b612a3d8a61338b565b1580612a4f5750612a4d896133e5565b155b15612aa05782828080601f016020809104026020016040519081016040528093929190818152602001838380828437600081840152601f19601f820116905080830192505050505050509050612aad565b612aaa8383613491565b90505b9998505050505050505050565b6000806000600160009054906101000a900473ffffffffffffffffffffffffffffffffffffffff1673ffffffffffffffffffffffffffffffffffffffff1663e6a1e888600260009054906101000a900473ffffffffffffffffffffffffffffffffffffffff1630600360009054906101000a900473ffffffffffffffffffffffffffffffffffffffff166040518463ffffffff1660e01b8152600401808473ffffffffffffffffffffffffffffffffffffffff1681526020018373ffffffffffffffffffffffffffffffffffffffff1681526020018273ffffffffffffffffffffffffffffffffffffffff168152602001935050505060806040518083038186803b158015612bc857600080fd5b505afa158015612bdc573d6000803e3d6000fd5b505050506040513d6080811015612bf257600080fd5b81019080805190602001909291908051906020019092919080519060200190929190805190602001909291905050509091925090505080935050600160009054906101000a900473ffffffffffffffffffffffffffffffffffffffff1673ffffffffffffffffffffffffffffffffffffffff1663e6a1e888600260009054906101000a900473ffffffffffffffffffffffffffffffffffffffff1630600460009054906101000a900473ffffffffffffffffffffffffffffffffffffffff166040518463ffffffff1660e01b8152600401808473ffffffffffffffffffffffffffffffffffffffff1681526020018373ffffffffffffffffffffffffffffffffffffffff1681526020018273ffffffffffffffffffffffffffffffffffffffff168152602001935050505060806040518083038186803b158015612d3557600080fd5b505afa158015612d49573d6000803e3d6000fd5b505050506040513d6080811015612d5f57600080fd5b81019080805190602001909291908051906020019092919080519060200190929190805190602001909291905050509091925090505080925050600160009054906101000a900473ffffffffffffffffffffffffffffffffffffffff1673ffffffffffffffffffffffffffffffffffffffff1663e8e7e2d1600260009054906101000a900473ffffffffffffffffffffffffffffffffffffffff16306040518363ffffffff1660e01b8152600401808373ffffffffffffffffffffffffffffffffffffffff1681526020018273ffffffffffffffffffffffffffffffffffffffff1681526020019250505060206040518083038186803b158015612e6257600080fd5b505afa158015612e76573d6000803e3d6000fd5b505050506040513d6020811015612e8c57600080fd5b81019080805190602001909291905050509050909192565b6000806000806000600560149054906101000a9004600b0b9450600760009054906101000a9004600b0b9350600260009054906101000a900473ffffffffffffffffffffffffffffffffffffffff1692506007600c9054906101000a900460ff16915060085490509091929394565b60606040517f08c379a000000000000000000000000000000000000000000000000000000000815260040180806020018281038252603381526020018061662b6033913960400191505060405180910390fd5b600460009054906101000a900473ffffffffffffffffffffffffffffffffffffffff1673ffffffffffffffffffffffffffffffffffffffff163373ffffffffffffffffffffffffffffffffffffffff161461300c576040517f08c379a000000000000000000000000000000000000000000000000000000000815260040180806020018281038252602181526020018061660a6021913960400191505060405180910390fd5b806007600c6101000a81548160ff02191690831515021790555050565b60606040517f08c379a000000000000000000000000000000000000000000000000000000000815260040180806020018281038252602f8152602001806166a4602f913960400191505060405180910390fd5b600460009054906101000a900473ffffffffffffffffffffffffffffffffffffffff1673ffffffffffffffffffffffffffffffffffffffff163373ffffffffffffffffffffffffffffffffffffffff1614613122576040517f08c379a000000000000000000000000000000000000000000000000000000000815260040180806020018281038252602181526020018061660a6021913960400191505060405180910390fd5b80600854141561313157613139565b806008819055505b50565b606089896131498261338b565b6131bb576040517f08c379a00000000000000000000000000000000000000000000000000000000081526004018080602001828103825260178152602001807f4953413a206e6f7420616363657074656420746f6b656e00000000000000000081525060200191505060405180910390fd5b6131c4816133e5565b613236576040517f08c379a00000000000000000000000000000000000000000000000000000000081526004018080602001828103825260198152602001807f4953413a206f6e6c7920434641763120737570706f727465640000000000000081525060200191505060405180910390fd5b60008054906101000a900473ffffffffffffffffffffffffffffffffffffffff1673ffffffffffffffffffffffffffffffffffffffff163373ffffffffffffffffffffffffffffffffffffffff16146132f7576040517f08c379a000000000000000000000000000000000000000000000000000000000815260040180806020018281038252601a8152602001807f4953413a20737570706f7274206f6e6c79206f6e6520686f737400000000000081525060200191505060405180910390fd5b6133018585613491565b925050509998505050505050505050565b6000806000600360009054906101000a900473ffffffffffffffffffffffffffffffffffffffff169250600460009054906101000a900473ffffffffffffffffffffffffffffffffffffffff169150600560009054906101000a900473ffffffffffffffffffffffffffffffffffffffff169050909192565b6000600260009054906101000a900473ffffffffffffffffffffffffffffffffffffffff1673ffffffffffffffffffffffffffffffffffffffff168273ffffffffffffffffffffffffffffffffffffffff16149050919050565b60007fa9214cc96615e0085d3bb077758db69497dc2dce3b2b1e97bc93c3d18d83efd38273ffffffffffffffffffffffffffffffffffffffff16637730599e6040518163ffffffff1660e01b815260040160206040518083038186803b15801561344e57600080fd5b505afa158015613462573d6000803e3d6000fd5b505050506040513d602081101561347857600080fd5b8101908080519060200190929190505050149050919050565b606082828080601f016020809104026020016040519081016040528093929190818152602001838380828437600081840152601f19601f8201169050808301925050505050505090506000600160009054906101000a900473ffffffffffffffffffffffffffffffffffffffff1673ffffffffffffffffffffffffffffffffffffffff1663e8e7e2d1600260009054906101000a900473ffffffffffffffffffffffffffffffffffffffff16306040518363ffffffff1660e01b8152600401808373ffffffffffffffffffffffffffffffffffffffff1681526020018273ffffffffffffffffffffffffffffffffffffffff1681526020019250505060206040518083038186803b1580156135a557600080fd5b505afa1580156135b9573d6000803e3d6000fd5b505050506040513d60208110156135cf57600080fd5b810190808051906020019092919050505090506000600160009054906101000a900473ffffffffffffffffffffffffffffffffffffffff1673ffffffffffffffffffffffffffffffffffffffff1663e6a1e888600260009054906101000a900473ffffffffffffffffffffffffffffffffffffffff1630600360009054906101000a900473ffffffffffffffffffffffffffffffffffffffff166040518463ffffffff1660e01b8152600401808473ffffffffffffffffffffffffffffffffffffffff1681526020018373ffffffffffffffffffffffffffffffffffffffff1681526020018273ffffffffffffffffffffffffffffffffffffffff168152602001935050505060806040518083038186803b1580156136ed57600080fd5b505afa158015613701573d6000803e3d6000fd5b505050506040513d608081101561371757600080fd5b81019080805190602001909291908051906020019092919080519060200190929190805190602001909291905050505050915050600080600160009054906101000a900473ffffffffffffffffffffffffffffffffffffffff1673ffffffffffffffffffffffffffffffffffffffff1663e6a1e888600260009054906101000a900473ffffffffffffffffffffffffffffffffffffffff1630600460009054906101000a900473ffffffffffffffffffffffffffffffffffffffff166040518463ffffffff1660e01b8152600401808473ffffffffffffffffffffffffffffffffffffffff1681526020018373ffffffffffffffffffffffffffffffffffffffff1681526020018273ffffffffffffffffffffffffffffffffffffffff168152602001935050505060806040518083038186803b15801561385757600080fd5b505afa15801561386b573d6000803e3d6000fd5b505050506040513d608081101561388157600080fd5b810190808051906020019092919080519060200190929190805190602001909291908051906020019092919050505050509150915060008184019050600082858701019050600081600b0b12156138d9578060000390505b600760009054906101000a9004600b0b600b0b81600b0b1215613964576000600660006101000a8154816bffffffffffffffffffffffff0219169083600b0b6bffffffffffffffffffffffff160217905550806006600c6101000a8154816bffffffffffffffffffffffff0219169083600b0b6bffffffffffffffffffffffff1602179055506139ff565b600560149054906101000a9004600b0b6064600b0b82600b0b8161398457fe5b0502600660006101000a8154816bffffffffffffffffffffffff0219169083600b0b6bffffffffffffffffffffffff160217905550600660009054906101000a9004600b0b81036006600c6101000a8154816bffffffffffffffffffffffff0219169083600b0b6bffffffffffffffffffffffff1602179055505b6000600b0b81600b0b136144a75760008054906101000a900473ffffffffffffffffffffffffffffffffffffffff1673ffffffffffffffffffffffffffffffffffffffff16634329d293600160009054906101000a900473ffffffffffffffffffffffffffffffffffffffff1663b4b333c660e01b600260009054906101000a900473ffffffffffffffffffffffffffffffffffffffff1630600360009054906101000a900473ffffffffffffffffffffffffffffffffffffffff16600067ffffffffffffffff81118015613ad357600080fd5b506040519080825280601f01601f191660200182016040528015613b065781602001600182028036833780820191505090505b50604051602401808573ffffffffffffffffffffffffffffffffffffffff1681526020018473ffffffffffffffffffffffffffffffffffffffff1681526020018373ffffffffffffffffffffffffffffffffffffffff16815260200180602001828103825283818151815260200191508051906020019080838360005b83811015613b9e578082015181840152602081019050613b83565b50505050905090810190601f168015613bcb5780820380516001836020036101000a031916815260200191505b5095505050505050604051602081830303815290604052907bffffffffffffffffffffffffffffffffffffffffffffffffffffffff19166020820180517bffffffffffffffffffffffffffffffffffffffffffffffffffffffff83818316178352505050508a6040518463ffffffff1660e01b8152600401808473ffffffffffffffffffffffffffffffffffffffff168152602001806020018060200180602001848103845286818151815260200191508051906020019080838360005b83811015613ca4578082015181840152602081019050613c89565b50505050905090810190601f168015613cd15780820380516001836020036101000a031916815260200191505b50848103835260028152602001807f3078000000000000000000000000000000000000000000000000000000000000815250602001848103825285818151815260200191508051906020019080838360005b83811015613d3e578082015181840152602081019050613d23565b50505050905090810190601f168015613d6b5780820380516001836020036101000a031916815260200191505b509650505050505050600060405180830381600087803b158015613d8e57600080fd5b505af1158015613da2573d6000803e3d6000fd5b505050506040513d6000823e3d601f19601f820116820180604052506040811015613dcc57600080fd5b8101908080516040519392919084640100000000821115613dec57600080fd5b83820191506020820185811115613e0257600080fd5b8251866001820283011164010000000082111715613e1f57600080fd5b8083526020830192505050908051906020019080838360005b83811015613e53578082015181840152602081019050613e38565b50505050905090810190601f168015613e805780820380516001836020036101000a031916815260200191505b5060405260200180516040519392919084640100000000821115613ea357600080fd5b83820191506020820185811115613eb957600080fd5b8251866001820283011164010000000082111715613ed657600080fd5b8083526020830192505050908051906020019080838360005b83811015613f0a578082015181840152602081019050613eef565b50505050905090810190601f168015613f375780820380516001836020036101000a031916815260200191505b506040525050505080975050613f4b616467565b15613f5e57834203600a5401600a819055505b613f66616467565b156144a25760008054906101000a900473ffffffffffffffffffffffffffffffffffffffff1673ffffffffffffffffffffffffffffffffffffffff16634329d293600160009054906101000a900473ffffffffffffffffffffffffffffffffffffffff1663b4b333c660e01b600260009054906101000a900473ffffffffffffffffffffffffffffffffffffffff1630600460009054906101000a900473ffffffffffffffffffffffffffffffffffffffff16600067ffffffffffffffff8111801561403157600080fd5b506040519080825280601f01601f1916602001820160405280156140645781602001600182028036833780820191505090505b50604051602401808573ffffffffffffffffffffffffffffffffffffffff1681526020018473ffffffffffffffffffffffffffffffffffffffff1681526020018373ffffffffffffffffffffffffffffffffffffffff16815260200180602001828103825283818151815260200191508051906020019080838360005b838110156140fc5780820151818401526020810190506140e1565b50505050905090810190601f1680156141295780820380516001836020036101000a031916815260200191505b5095505050505050604051602081830303815290604052907bffffffffffffffffffffffffffffffffffffffffffffffffffffffff19166020820180517bffffffffffffffffffffffffffffffffffffffffffffffffffffffff83818316178352505050508a6040518463ffffffff1660e01b8152600401808473ffffffffffffffffffffffffffffffffffffffff168152602001806020018060200180602001848103845286818151815260200191508051906020019080838360005b838110156142025780820151818401526020810190506141e7565b50505050905090810190601f16801561422f5780820380516001836020036101000a031916815260200191505b50848103835260028152602001807f3078000000000000000000000000000000000000000000000000000000000000815250602001848103825285818151815260200191508051906020019080838360005b8381101561429c578082015181840152602081019050614281565b50505050905090810190601f1680156142c95780820380516001836020036101000a031916815260200191505b509650505050505050600060405180830381600087803b1580156142ec57600080fd5b505af1158015614300573d6000803e3d6000fd5b505050506040513d6000823e3d601f19601f82011682018060405250604081101561432a57600080fd5b810190808051604051939291908464010000000082111561434a57600080fd5b8382019150602082018581111561436057600080fd5b825186600182028301116401000000008211171561437d57600080fd5b8083526020830192505050908051906020019080838360005b838110156143b1578082015181840152602081019050614396565b50505050905090810190601f1680156143de5780820380516001836020036101000a031916815260200191505b506040526020018051604051939291908464010000000082111561440157600080fd5b8382019150602082018581111561441757600080fd5b825186600182028301116401000000008211171561443457600080fd5b8083526020830192505050908051906020019080838360005b8381101561446857808201518184015260208101905061444d565b50505050905090810190601f1680156144955780820380516001836020036101000a031916815260200191505b5060405250505050809750505b61645b565b6000600b0b82600b0b146159d75760008054906101000a900473ffffffffffffffffffffffffffffffffffffffff1673ffffffffffffffffffffffffffffffffffffffff16634329d293600160009054906101000a900473ffffffffffffffffffffffffffffffffffffffff166350209a6260e01b600260009054906101000a900473ffffffffffffffffffffffffffffffffffffffff16600360009054906101000a900473ffffffffffffffffffffffffffffffffffffffff166006600c9054906101000a9004600b0b600067ffffffffffffffff8111801561458a57600080fd5b506040519080825280601f01601f1916602001820160405280156145bd5781602001600182028036833780820191505090505b50604051602401808573ffffffffffffffffffffffffffffffffffffffff1681526020018473ffffffffffffffffffffffffffffffffffffffff16815260200183600b0b815260200180602001828103825283818151815260200191508051906020019080838360005b83811015614642578082015181840152602081019050614627565b50505050905090810190601f16801561466f5780820380516001836020036101000a031916815260200191505b5095505050505050604051602081830303815290604052907bffffffffffffffffffffffffffffffffffffffffffffffffffffffff19166020820180517bffffffffffffffffffffffffffffffffffffffffffffffffffffffff83818316178352505050508a6040518463ffffffff1660e01b8152600401808473ffffffffffffffffffffffffffffffffffffffff168152602001806020018060200180602001848103845286818151815260200191508051906020019080838360005b8381101561474857808201518184015260208101905061472d565b50505050905090810190601f1680156147755780820380516001836020036101000a031916815260200191505b50848103835260028152602001807f3078000000000000000000000000000000000000000000000000000000000000815250602001848103825285818151815260200191508051906020019080838360005b838110156147e25780820151818401526020810190506147c7565b50505050905090810190601f16801561480f5780820380516001836020036101000a031916815260200191505b509650505050505050600060405180830381600087803b15801561483257600080fd5b505af1158015614846573d6000803e3d6000fd5b505050506040513d6000823e3d601f19601f82011682018060405250604081101561487057600080fd5b810190808051604051939291908464010000000082111561489057600080fd5b838201915060208201858111156148a657600080fd5b82518660018202830111640100000000821117156148c357600080fd5b8083526020830192505050908051906020019080838360005b838110156148f75780820151818401526020810190506148dc565b50505050905090810190601f1680156149245780820380516001836020036101000a031916815260200191505b506040526020018051604051939291908464010000000082111561494757600080fd5b8382019150602082018581111561495d57600080fd5b825186600182028301116401000000008211171561497a57600080fd5b8083526020830192505050908051906020019080838360005b838110156149ae578082015181840152602081019050614993565b50505050905090810190601f1680156149db5780820380516001836020036101000a031916815260200191505b506040525050505080975050600760009054906101000a9004600b0b600b0b81600b0b131561548057614a0c616467565b15614f485760008054906101000a900473ffffffffffffffffffffffffffffffffffffffff1673ffffffffffffffffffffffffffffffffffffffff16634329d293600160009054906101000a900473ffffffffffffffffffffffffffffffffffffffff166350209a6260e01b600260009054906101000a900473ffffffffffffffffffffffffffffffffffffffff16600460009054906101000a900473ffffffffffffffffffffffffffffffffffffffff16600660009054906101000a9004600b0b600067ffffffffffffffff81118015614ae657600080fd5b506040519080825280601f01601f191660200182016040528015614b195781602001600182028036833780820191505090505b50604051602401808573ffffffffffffffffffffffffffffffffffffffff1681526020018473ffffffffffffffffffffffffffffffffffffffff16815260200183600b0b815260200180602001828103825283818151815260200191508051906020019080838360005b83811015614b9e578082015181840152602081019050614b83565b50505050905090810190601f168015614bcb5780820380516001836020036101000a031916815260200191505b5095505050505050604051602081830303815290604052907bffffffffffffffffffffffffffffffffffffffffffffffffffffffff19166020820180517bffffffffffffffffffffffffffffffffffffffffffffffffffffffff83818316178352505050508a6040518463ffffffff1660e01b8152600401808473ffffffffffffffffffffffffffffffffffffffff168152602001806020018060200180602001848103845286818151815260200191508051906020019080838360005b83811015614ca4578082015181840152602081019050614c89565b50505050905090810190601f168015614cd15780820380516001836020036101000a031916815260200191505b50848103835260028152602001807f3078000000000000000000000000000000000000000000000000000000000000815250602001848103825285818151815260200191508051906020019080838360005b83811015614d3e578082015181840152602081019050614d23565b50505050905090810190601f168015614d6b5780820380516001836020036101000a031916815260200191505b509650505050505050600060405180830381600087803b158015614d8e57600080fd5b505af1158015614da2573d6000803e3d6000fd5b505050506040513d6000823e3d601f19601f820116820180604052506040811015614dcc57600080fd5b8101908080516040519392919084640100000000821115614dec57600080fd5b83820191506020820185811115614e0257600080fd5b8251866001820283011164010000000082111715614e1f57600080fd5b8083526020830192505050908051906020019080838360005b83811015614e53578082015181840152602081019050614e38565b50505050905090810190601f168015614e805780820380516001836020036101000a031916815260200191505b5060405260200180516040519392919084640100000000821115614ea357600080fd5b83820191506020820185811115614eb957600080fd5b8251866001820283011164010000000082111715614ed657600080fd5b8083526020830192505050908051906020019080838360005b83811015614f0a578082015181840152602081019050614eef565b50505050905090810190601f168015614f375780820380516001836020036101000a031916815260200191505b50604052505050508097505061547b565b60008054906101000a900473ffffffffffffffffffffffffffffffffffffffff1673ffffffffffffffffffffffffffffffffffffffff16634329d293600160009054906101000a900473ffffffffffffffffffffffffffffffffffffffff166362fc305e60e01b600260009054906101000a900473ffffffffffffffffffffffffffffffffffffffff16600460009054906101000a900473ffffffffffffffffffffffffffffffffffffffff16600660009054906101000a9004600b0b600067ffffffffffffffff8111801561501d57600080fd5b506040519080825280601f01601f1916602001820160405280156150505781602001600182028036833780820191505090505b50604051602401808573ffffffffffffffffffffffffffffffffffffffff1681526020018473ffffffffffffffffffffffffffffffffffffffff16815260200183600b0b815260200180602001828103825283818151815260200191508051906020019080838360005b838110156150d55780820151818401526020810190506150ba565b50505050905090810190601f1680156151025780820380516001836020036101000a031916815260200191505b5095505050505050604051602081830303815290604052907bffffffffffffffffffffffffffffffffffffffffffffffffffffffff19166020820180517bffffffffffffffffffffffffffffffffffffffffffffffffffffffff83818316178352505050508a6040518463ffffffff1660e01b8152600401808473ffffffffffffffffffffffffffffffffffffffff168152602001806020018060200180602001848103845286818151815260200191508051906020019080838360005b838110156151db5780820151818401526020810190506151c0565b50505050905090810190601f1680156152085780820380516001836020036101000a031916815260200191505b50848103835260028152602001807f3078000000000000000000000000000000000000000000000000000000000000815250602001848103825285818151815260200191508051906020019080838360005b8381101561527557808201518184015260208101905061525a565b50505050905090810190601f1680156152a25780820380516001836020036101000a031916815260200191505b509650505050505050600060405180830381600087803b1580156152c557600080fd5b505af11580156152d9573d6000803e3d6000fd5b505050506040513d6000823e3d601f19601f82011682018060405250604081101561530357600080fd5b810190808051604051939291908464010000000082111561532357600080fd5b8382019150602082018581111561533957600080fd5b825186600182028301116401000000008211171561535657600080fd5b8083526020830192505050908051906020019080838360005b8381101561538a57808201518184015260208101905061536f565b50505050905090810190601f1680156153b75780820380516001836020036101000a031916815260200191505b50604052602001805160405193929190846401000000008211156153da57600080fd5b838201915060208201858111156153f057600080fd5b825186600182028301116401000000008211171561540d57600080fd5b8083526020830192505050908051906020019080838360005b83811015615441578082015181840152602081019050615426565b50505050905090810190601f16801561546e5780820380516001836020036101000a031916815260200191505b5060405250505050809750505b6159d2565b615488616467565b156159d157834203600a5401600a8190555060008054906101000a900473ffffffffffffffffffffffffffffffffffffffff1673ffffffffffffffffffffffffffffffffffffffff16634329d293600160009054906101000a900473ffffffffffffffffffffffffffffffffffffffff1663b4b333c660e01b600260009054906101000a900473ffffffffffffffffffffffffffffffffffffffff1630600460009054906101000a900473ffffffffffffffffffffffffffffffffffffffff16600067ffffffffffffffff8111801561556057600080fd5b506040519080825280601f01601f1916602001820160405280156155935781602001600182028036833780820191505090505b50604051602401808573ffffffffffffffffffffffffffffffffffffffff1681526020018473ffffffffffffffffffffffffffffffffffffffff1681526020018373ffffffffffffffffffffffffffffffffffffffff16815260200180602001828103825283818151815260200191508051906020019080838360005b8381101561562b578082015181840152602081019050615610565b50505050905090810190601f1680156156585780820380516001836020036101000a031916815260200191505b5095505050505050604051602081830303815290604052907bffffffffffffffffffffffffffffffffffffffffffffffffffffffff19166020820180517bffffffffffffffffffffffffffffffffffffffffffffffffffffffff83818316178352505050508a6040518463ffffffff1660e01b8152600401808473ffffffffffffffffffffffffffffffffffffffff168152602001806020018060200180602001848103845286818151815260200191508051906020019080838360005b83811015615731578082015181840152602081019050615716565b50505050905090810190601f16801561575e5780820380516001836020036101000a031916815260200191505b50848103835260028152602001807f3078000000000000000000000000000000000000000000000000000000000000815250602001848103825285818151815260200191508051906020019080838360005b838110156157cb5780820151818401526020810190506157b0565b50505050905090810190601f1680156157f85780820380516001836020036101000a031916815260200191505b509650505050505050600060405180830381600087803b15801561581b57600080fd5b505af115801561582f573d6000803e3d6000fd5b505050506040513d6000823e3d601f19601f82011682018060405250604081101561585957600080fd5b810190808051604051939291908464010000000082111561587957600080fd5b8382019150602082018581111561588f57600080fd5b82518660018202830111640100000000821117156158ac57600080fd5b8083526020830192505050908051906020019080838360005b838110156158e05780820151818401526020810190506158c5565b50505050905090810190601f16801561590d5780820380516001836020036101000a031916815260200191505b506040526020018051604051939291908464010000000082111561593057600080fd5b8382019150602082018581111561594657600080fd5b825186600182028301116401000000008211171561596357600080fd5b8083526020830192505050908051906020019080838360005b8381101561599757808201518184015260208101905061597c565b50505050905090810190601f1680156159c45780820380516001836020036101000a031916815260200191505b5060405250505050809750505b5b61645a565b60008054906101000a900473ffffffffffffffffffffffffffffffffffffffff1673ffffffffffffffffffffffffffffffffffffffff16634329d293600160009054906101000a900473ffffffffffffffffffffffffffffffffffffffff166362fc305e60e01b600260009054906101000a900473ffffffffffffffffffffffffffffffffffffffff16600360009054906101000a900473ffffffffffffffffffffffffffffffffffffffff166006600c9054906101000a9004600b0b600067ffffffffffffffff81118015615aac57600080fd5b506040519080825280601f01601f191660200182016040528015615adf5781602001600182028036833780820191505090505b50604051602401808573ffffffffffffffffffffffffffffffffffffffff1681526020018473ffffffffffffffffffffffffffffffffffffffff16815260200183600b0b815260200180602001828103825283818151815260200191508051906020019080838360005b83811015615b64578082015181840152602081019050615b49565b50505050905090810190601f168015615b915780820380516001836020036101000a031916815260200191505b5095505050505050604051602081830303815290604052907bffffffffffffffffffffffffffffffffffffffffffffffffffffffff19166020820180517bffffffffffffffffffffffffffffffffffffffffffffffffffffffff83818316178352505050508a6040518463ffffffff1660e01b8152600401808473ffffffffffffffffffffffffffffffffffffffff168152602001806020018060200180602001848103845286818151815260200191508051906020019080838360005b83811015615c6a578082015181840152602081019050615c4f565b50505050905090810190601f168015615c975780820380516001836020036101000a031916815260200191505b50848103835260028152602001807f3078000000000000000000000000000000000000000000000000000000000000815250602001848103825285818151815260200191508051906020019080838360005b83811015615d04578082015181840152602081019050615ce9565b50505050905090810190601f168015615d315780820380516001836020036101000a031916815260200191505b509650505050505050600060405180830381600087803b158015615d5457600080fd5b505af1158015615d68573d6000803e3d6000fd5b505050506040513d6000823e3d601f19601f820116820180604052506040811015615d9257600080fd5b8101908080516040519392919084640100000000821115615db257600080fd5b83820191506020820185811115615dc857600080fd5b8251866001820283011164010000000082111715615de557600080fd5b8083526020830192505050908051906020019080838360005b83811015615e19578082015181840152602081019050615dfe565b50505050905090810190601f168015615e465780820380516001836020036101000a031916815260200191505b5060405260200180516040519392919084640100000000821115615e6957600080fd5b83820191506020820185811115615e7f57600080fd5b8251866001820283011164010000000082111715615e9c57600080fd5b8083526020830192505050908051906020019080838360005b83811015615ed0578082015181840152602081019050615eb5565b50505050905090810190601f168015615efd5780820380516001836020036101000a031916815260200191505b506040525050505080975050600760009054906101000a9004600b0b600b0b81600b0b13156164595760008054906101000a900473ffffffffffffffffffffffffffffffffffffffff1673ffffffffffffffffffffffffffffffffffffffff16634329d293600160009054906101000a900473ffffffffffffffffffffffffffffffffffffffff166362fc305e60e01b600260009054906101000a900473ffffffffffffffffffffffffffffffffffffffff16600460009054906101000a900473ffffffffffffffffffffffffffffffffffffffff16600660009054906101000a9004600b0b600067ffffffffffffffff81118015615ffb57600080fd5b506040519080825280601f01601f19166020018201604052801561602e5781602001600182028036833780820191505090505b50604051602401808573ffffffffffffffffffffffffffffffffffffffff1681526020018473ffffffffffffffffffffffffffffffffffffffff16815260200183600b0b815260200180602001828103825283818151815260200191508051906020019080838360005b838110156160b3578082015181840152602081019050616098565b50505050905090810190601f1680156160e05780820380516001836020036101000a031916815260200191505b5095505050505050604051602081830303815290604052907bffffffffffffffffffffffffffffffffffffffffffffffffffffffff19166020820180517bffffffffffffffffffffffffffffffffffffffffffffffffffffffff83818316178352505050508a6040518463ffffffff1660e01b8152600401808473ffffffffffffffffffffffffffffffffffffffff168152602001806020018060200180602001848103845286818151815260200191508051906020019080838360005b838110156161b957808201518184015260208101905061619e565b50505050905090810190601f1680156161e65780820380516001836020036101000a031916815260200191505b50848103835260028152602001807f3078000000000000000000000000000000000000000000000000000000000000815250602001848103825285818151815260200191508051906020019080838360005b83811015616253578082015181840152602081019050616238565b50505050905090810190601f1680156162805780820380516001836020036101000a031916815260200191505b509650505050505050600060405180830381600087803b1580156162a357600080fd5b505af11580156162b7573d6000803e3d6000fd5b505050506040513d6000823e3d601f19601f8201168201806040525060408110156162e157600080fd5b810190808051604051939291908464010000000082111561630157600080fd5b8382019150602082018581111561631757600080fd5b825186600182028301116401000000008211171561633457600080fd5b8083526020830192505050908051906020019080838360005b8381101561636857808201518184015260208101905061634d565b50505050905090810190601f1680156163955780820380516001836020036101000a031916815260200191505b50604052602001805160405193929190846401000000008211156163b857600080fd5b838201915060208201858111156163ce57600080fd5b82518660018202830111640100000000821117156163eb57600080fd5b8083526020830192505050908051906020019080838360005b8381101561641f578082015181840152602081019050616404565b50505050905090810190601f16801561644c5780820380516001836020036101000a031916815260200191505b5060405250505050809750505b5b5b50505050505092915050565b6000806000600160009054906101000a900473ffffffffffffffffffffffffffffffffffffffff1673ffffffffffffffffffffffffffffffffffffffff1663e6a1e888600260009054906101000a900473ffffffffffffffffffffffffffffffffffffffff1630600460009054906101000a900473ffffffffffffffffffffffffffffffffffffffff166040518463ffffffff1660e01b8152600401808473ffffffffffffffffffffffffffffffffffffffff1681526020018373ffffffffffffffffffffffffffffffffffffffff1681526020018273ffffffffffffffffffffffffffffffffffffffff168152602001935050505060806040518083038186803b15801561657557600080fd5b505afa158015616589573d6000803e3d6000fd5b505050506040513d608081101561659f57600080fd5b810190808051906020019092919080519060200190929190805190602001909291908051906020019092919050505050509150915060008211156165e857600192505050616606565b600081600b0b13156165ff57600192505050616606565b6000925050505b9056fe4f6e6c79206c656e6465722063616e206d616b6520697420747261646561626c65556e737570706f727465642063616c6c6261636b202d20204265666f72652041677265656d656e74205465726d696e617465644f6e6c792053747564656e742063616e20617070726f766520496e737469747574652e4f6e6c7920496e737469747574652063616e207769746864726177206d6f6e65792121556e737570706f727465642063616c6c6261636b202d204265666f72652041677265656d656e7420757064617465644f6e6c7920312065746865722063616e2062652073656e7420746f207468697320636f6e7472616374776974686472617720796574206e6f7420617070726f7665642062792073747564656e74556e737570706f727465642063616c6c6261636b202d204265666f72652041677265656d656e7420437265617465645468697320636f6e7472616374206973206e6f7420547261646561626c65207965742ea2646970667358221220377cb9b31256ca180c21c1f710dc882cf9676b35dcf0139b71f6a5a7067fd85564736f6c63430007060033",
  "immutableReferences": {},
  "source": "// SPDX-License-Identifier: MIT\npragma solidity ^0.7.0;\n\nimport {\n    ISuperfluid,\n    ISuperToken,\n    ISuperApp,\n    ISuperAgreement,\n    SuperAppDefinitions\n} from \"@superfluid-finance/ethereum-contracts/contracts/interfaces/superfluid/ISuperfluid.sol\";//\"@superfluid-finance/ethereum-monorepo/packages/ethereum-contracts/contracts/interfaces/superfluid/ISuperfluid.sol\";\n\nimport {\n    IConstantFlowAgreementV1\n} from \"@superfluid-finance/ethereum-contracts/contracts/interfaces/agreements/IConstantFlowAgreementV1.sol\";\n\nimport {\n    SuperAppBase\n} from \"@superfluid-finance/ethereum-contracts/contracts/apps/SuperAppBase.sol\";\ncontract ISA is SuperAppBase {\n\n    ISuperfluid private _host; // host\n    IConstantFlowAgreementV1 private _cfa; // the stored constant flow agreement class address\n    ISuperToken private _acceptedToken; // accepted token\n    address payable _student;\n    address payable _lender;\n    address payable _institute;\n    int96 private _rate;\n    int96 private _lenderRate;\n    int96 private _studentRate;\n\n    int96 private _threholdSalaryFlowRate;\n    \n    bool _isTradeable;\n    uint _tradePrice;\n    \n    // The below vars are used in context of lender\n    uint _totalTime;\n    uint _timeUnitPaid;\n   \n    \n    mapping (address => bool) _approval;\n    \n\n    constructor(\n        ISuperfluid host,\n        IConstantFlowAgreementV1 cfa,\n        ISuperToken acceptedToken,\n        address payable student, \n        address payable lender, \n        address payable institute,\n        int96 thresholdSalary,\n        uint totalTime,\n        int96 rate) {\n        assert(address(host) != address(0));\n        assert(address(cfa) != address(0));\n        assert(address(acceptedToken) != address(0));\n        assert(address(student) != address(0));\n        assert(address(lender) != address(0));\n        // Rate to lender can be between (10-80)%\n        assert(rate > 10 && rate < 80);\n        //assert(!_host.isApp(ISuperApp(student)));\n       assert(totalTime > 0 && totalTime <= 63072000);\n\n        _host = host;\n        _cfa = cfa;\n        _acceptedToken = acceptedToken;\n        _student = student;\n        _lender = lender;\n        _rate = rate;\n        _institute = institute;\n        _threholdSalaryFlowRate = thresholdSalary;\n        _isTradeable = false;\n        _timeUnitPaid = 0;\n        // @dev ttotalTime is in seconds\n        _totalTime = totalTime;\n        \n      \n\n        uint256 configWord =\n            SuperAppDefinitions.APP_LEVEL_FINAL |\n            SuperAppDefinitions.BEFORE_AGREEMENT_CREATED_NOOP |\n            SuperAppDefinitions.BEFORE_AGREEMENT_UPDATED_NOOP |\n            SuperAppDefinitions.BEFORE_AGREEMENT_TERMINATED_NOOP;\n\n        _host.registerApp(configWord);\n    }\n\n\n    /**************************************************************************\n     * Redirect Logic\n     *************************************************************************/\n     \n    function contractParties() external view \n        returns (\n            address student,\n            address lender,\n            address institute\n        )\n    {\n        student = _student;\n        lender = _lender;\n        institute = _institute;\n    }\n    \n    function contractRates() external view\n        returns (\n            int96 distributionRate,\n            int96 thresholdSalary,\n            ISuperToken acceptedToken,\n            bool isTradeable,\n            uint tradePrice\n        )\n    {\n        distributionRate = _rate;\n        thresholdSalary = _threholdSalaryFlowRate;\n        acceptedToken = _acceptedToken;\n        isTradeable = _isTradeable;\n        tradePrice = _tradePrice;\n    }\n    \n    function contractFlows() external view \n        returns (\n            int96 studentflowRate,\n            int96 lenderflowRate,\n            int96 netFlowISA\n        )\n    {\n        (, studentflowRate,,) = _cfa.getFlow(_acceptedToken, address(this), _student);\n        (, lenderflowRate,,) = _cfa.getFlow(_acceptedToken, address(this), _lender);\n        netFlowISA = _cfa.getNetFlow(_acceptedToken, address(this));\n    }\n    \n    function contractBalances() external view\n        returns (\n            uint totalTime,\n            uint timeUnitPaid,\n            int96 currentStudentRate,\n            int96 currentLenderRate\n        )\n    {\n        totalTime = _totalTime;\n        timeUnitPaid = _timeUnitPaid;\n        // These below are flowrate in wei per sec.\n        currentStudentRate = _studentRate;\n        currentLenderRate = _lenderRate;\n    }\n\n    function currentState()\n        external view\n        returns (\n            uint256 startTimeStudent,\n            uint256 startTimeLender,\n            address student,\n            address lender,\n            int96 studentflowRate,\n            int96 lenderflowRate,\n            int96 netFlowISA,\n            int96 distributionRate,\n            int96 thresholdSalary,\n            address institute,\n            uint256 balance,\n            bool isTradeable,\n            uint totalTime,\n            uint timeUnitPaid\n        )\n    {\n        if (_student != address(0)) {\n            (startTimeStudent, studentflowRate,,) = _cfa.getFlow(_acceptedToken, address(this), _student);\n            (startTimeLender, lenderflowRate,,) = _cfa.getFlow(_acceptedToken, address(this), _lender);\n            netFlowISA = _cfa.getNetFlow(_acceptedToken, address(this));\n            student = _student;\n            lender = _lender;\n            distributionRate = _rate;\n            thresholdSalary = _threholdSalaryFlowRate;\n            institute = _institute;\n            balance = address(this).balance;\n            isTradeable = _isTradeable;\n            totalTime = _totalTime;\n            timeUnitPaid = _timeUnitPaid;\n        }\n    }\n    \n    receive() external payable { \n        if(msg.sender != _lender){\n            require(_isTradeable, \"This contract is not Tradeable yet.\");\n       \n            require(msg.value == _tradePrice, \"Not Exact moeny Provided\");\n            _lender.transfer(_tradePrice);\n            _lender = msg.sender;\n        } else {\n            require(msg.value == 1 ether, \"Only 1 ether can be sent to this contract\");\n        }\n    }\n    \n    \n    function approve() external {\n        require(msg.sender == _student, \"Only Student can approve Institute.\");\n        _approval[_institute] = true;\n    }\n    \n    function withdraw() payable external {\n        require(msg.sender == _institute, \"Only Institute can withdraw money!!\");\n        require(_approval[msg.sender], \"withdraw yet not approved by student\");\n        _institute.transfer(1 ether);\n    }\n    \n    // Function to set Tradeable Flags\n    function setTradeable(bool isTradeable) external {\n        require(msg.sender == _lender, \"Only lender can make it tradeable\");\n        \n        _isTradeable = isTradeable;\n    }\n    \n    function setTradePrice(uint price) external {\n         require(msg.sender == _lender, \"Only lender can make it tradeable\");\n        if(_tradePrice == price) return;\n        _tradePrice = price;\n    }\n    \n\n    function _lenderFlowExists() internal view returns (bool) {\n        (uint timestamp, int96 flow, , ) = _cfa.getFlow(\n            _acceptedToken,\n            address(this),\n            _lender\n          );\n        if(timestamp > 0){\n            return true;\n        }\n        if(flow > 0) {\n            return true;\n        }\n        return false;\n    }\n\n    /// @dev If a new stream is opened, or an existing one is opened\n    function _updateOutflow(bytes calldata ctx) \n        private\n        returns (bytes memory newCtx)\n    {\n      newCtx = ctx;\n      // @dev This will give me the new flowRate, as it is called in after callbacks\n      // Get here the net flow into this contract\n      int96 netFlowRate = _cfa.getNetFlow(_acceptedToken, address(this));\n      (,int96 outFlowRateStudent,,) = _cfa.getFlow(_acceptedToken, address(this), _student);\n      (uint lenderStartTime, int96 outFlowRateLender,,) = _cfa.getFlow(_acceptedToken, address(this), _lender);\n      \n      int96 outflowRate = outFlowRateStudent + outFlowRateLender;\n      int96 inFlowRate = netFlowRate + outFlowRateStudent + outFlowRateLender;\n      if (inFlowRate < 0 ) inFlowRate = -inFlowRate; // Fixes issue when inFlowRate is negative\n      \n      // @dev add thresholdSalary logic in this function\n      \n      if(inFlowRate < _threholdSalaryFlowRate) {\n          _lenderRate = int96(0);\n          _studentRate = inFlowRate;\n      } else {\n        _lenderRate = (inFlowRate/int96(100))*_rate;\n        _studentRate = inFlowRate - _lenderRate;\n      }\n\n      // @dev If inFlowRate === 0, then delete existing flow.\n      if (inFlowRate <= int96(0)) {\n        // If inflow goes to zero delete CFAs\n        // @dev if inFlowRate is zero or negative, delete outflow.\n          (newCtx, ) = _host.callAgreementWithContext(\n              _cfa,\n              abi.encodeWithSelector(\n                  _cfa.deleteFlow.selector,\n                  _acceptedToken,\n                  address(this),\n                  _student,\n                  new bytes(0) // placeholder\n              ),\n              \"0x\",\n              newCtx\n          );\n          \n          // @dev update the time unit paid\n          if(_lenderFlowExists()){\n            _timeUnitPaid = _timeUnitPaid + uint(block.timestamp - lenderStartTime);\n          }\n          \n          // @dev check if already have a flow to lender\n          if(_lenderFlowExists()){\n              (newCtx, ) = _host.callAgreementWithContext(\n                  _cfa,\n                  abi.encodeWithSelector(\n                      _cfa.deleteFlow.selector,\n                      _acceptedToken,\n                      address(this),\n                      _lender,\n                      new bytes(0) // placeholder\n                  ),\n                  \"0x\",\n                  newCtx\n              );\n          }\n          \n          \n          \n      } else if (outflowRate != int96(0)){\n        (newCtx, ) = _host.callAgreementWithContext(\n            _cfa,\n            abi.encodeWithSelector(\n                _cfa.updateFlow.selector,\n                _acceptedToken,\n                _student,\n                _studentRate,\n                new bytes(0) // placeholder\n            ),\n            \"0x\",\n            newCtx\n        );\n        if(inFlowRate > _threholdSalaryFlowRate){\n            if(_lenderFlowExists()) {\n                (newCtx, ) = _host.callAgreementWithContext(\n                    _cfa,\n                    abi.encodeWithSelector(\n                        _cfa.updateFlow.selector,\n                        _acceptedToken,\n                        _lender,\n                       _lenderRate,\n                        new bytes(0) // placeholder\n                    ),\n                    \"0x\",\n                    newCtx\n                );\n            } else {\n                (newCtx, ) = _host.callAgreementWithContext(\n                      _cfa,\n                      abi.encodeWithSelector(\n                          _cfa.createFlow.selector,\n                          _acceptedToken,\n                          _lender,\n                          _lenderRate,\n                          new bytes(0) // placeholder\n                      ),\n                      \"0x\",\n                      newCtx\n                  );\n            }\n        } else {\n            if(_lenderFlowExists()) {\n                 // Update Time for which it is paid\n                 _timeUnitPaid = _timeUnitPaid + uint(block.timestamp - lenderStartTime);\n                 \n                (newCtx, ) = _host.callAgreementWithContext(\n                  _cfa,\n                  abi.encodeWithSelector(\n                      _cfa.deleteFlow.selector,\n                      _acceptedToken,\n                      address(this),\n                      _lender,\n                      new bytes(0) // placeholder\n                  ),\n                  \"0x\",\n                  newCtx\n              );\n            }\n        }\n        \n      } else {\n      // @dev If there is no existing outflow, then create new flow to equal inflow\n          (newCtx, ) = _host.callAgreementWithContext(\n              _cfa,\n              abi.encodeWithSelector(\n                  _cfa.createFlow.selector,\n                  _acceptedToken,\n                  _student,\n                  _studentRate,\n                  new bytes(0) // placeholder\n              ),\n              \"0x\",\n              newCtx\n          );\n          if(inFlowRate > _threholdSalaryFlowRate){\n              \n               (newCtx, ) = _host.callAgreementWithContext(\n                      _cfa,\n                      abi.encodeWithSelector(\n                          _cfa.createFlow.selector,\n                          _acceptedToken,\n                          _lender,\n                          _lenderRate,\n                          new bytes(0) // placeholder\n                      ),\n                      \"0x\",\n                      newCtx\n                  );\n             \n          }\n          \n      }\n    }\n    \n    // Make bottom logic to be tradable from lender perspective (Lender can transfer stream to someone else)\n    \n    event lenderChanged(address lender); //what is this?\n\n    // @dev Change the student of the total flow\n    function changeReciever( address payable newLender ) public {\n        // @dev When Changing Reciever only lender needs to be changes. \n        require(msg.sender == _lender, \"Only lender can sell this ISA\");\n        require(_lender != _student, \"Student can't be lender\");\n        require(newLender != address(0), \"New lender is zero address\");\n        // @dev because our app is registered as final, we can't take downstream apps\n        require(!_host.isApp(ISuperApp(newLender)), \"New lender can not be a superApp\");\n        if (newLender == _lender) return ;\n        \n       \n        \n        // If Lender flow already exists then only need to change CFA Agreement from ISA -> lender\n        if(_lenderFlowExists()){\n            (uint lenderStartTime, int96 outFlowRateLender,,) = _cfa.getFlow(_acceptedToken, address(this), _lender);\n            \n             // If lender already exists then count it as paid by student\n            _timeUnitPaid = _timeUnitPaid + uint(block.timestamp - lenderStartTime);\n            \n            // Delete Old flow\n            _host.callAgreement(\n                _cfa,\n                abi.encodeWithSelector(\n                    _cfa.deleteFlow.selector,\n                    _acceptedToken,\n                    address(this),\n                    _lender,\n                    new bytes(0)\n                ),\n                \"0x\"\n            );\n            \n            // Create New Lender's flow\n            _host.callAgreement(\n                _cfa,\n                abi.encodeWithSelector(\n                    _cfa.createFlow.selector,\n                    _acceptedToken,\n                    newLender,\n                    outFlowRateLender,\n                    new bytes(0)\n                ),\n                \"0x\"\n            );\n        }\n      \n       \n        // @dev set global lender to new lender\n        _lender = newLender;\n\n        emit lenderChanged(_lender);\n    }\n\n    /**************************************************************************\n     * SuperApp callbacks\n     *************************************************************************/\n\n    function afterAgreementCreated(\n        ISuperToken _superToken,\n        address _agreementClass,\n        bytes32, // _agreementId,\n        bytes calldata /*_agreementData*/,\n        bytes calldata ,// _cbdata,\n        bytes calldata _ctx\n    )\n        external override\n        onlyExpected(_superToken, _agreementClass)\n        onlyHost\n        returns (bytes memory newCtx)\n    {\n        return _updateOutflow(_ctx);\n    }\n\n    function afterAgreementUpdated(\n        ISuperToken _superToken,\n        address _agreementClass,\n        bytes32 ,//_agreementId,\n        bytes calldata /*_agreementData*/,\n        bytes calldata ,//_cbdata,\n        bytes calldata _ctx\n    )\n        external override\n        onlyExpected(_superToken, _agreementClass)\n        onlyHost\n        returns (bytes memory newCtx)\n    {\n        return _updateOutflow(_ctx);\n    }\n\n    function afterAgreementTerminated(\n        ISuperToken _superToken,\n        address _agreementClass,\n        bytes32 ,//_agreementId,\n        bytes calldata /*_agreementData*/,\n        bytes calldata ,//_cbdata,\n        bytes calldata _ctx\n    )\n        external override\n        onlyHost\n        returns (bytes memory newCtx)\n    {\n        // According to the app basic law, we should never revert in a termination callback\n        if (!_isSameToken(_superToken) || !_isCFAv1(_agreementClass)) return _ctx;\n        return _updateOutflow(_ctx);\n    }\n\n    function _isSameToken(ISuperToken superToken) private view returns (bool) {\n        return address(superToken) == address(_acceptedToken);\n    }\n\n    function _isCFAv1(address agreementClass) private view returns (bool) {\n        return ISuperAgreement(agreementClass).agreementType()\n            == keccak256(\"org.superfluid-finance.agreements.ConstantFlowAgreement.v1\");\n    }\n\n    modifier onlyHost() {\n        require(msg.sender == address(_host), \"ISA: support only one host\");\n        _;\n    }\n\n    modifier onlyExpected(ISuperToken superToken, address agreementClass) {\n        require(_isSameToken(superToken), \"ISA: not accepted token\");\n        require(_isCFAv1(agreementClass), \"ISA: only CFAv1 supported\");\n        _;\n    }\n\n}",
  "sourcePath": "/home/prix/Documents/myProjects/devfolio/ethodyssey/contracts/ISA.sol",
  "compiler": {
    "name": "solc",
    "version": "0.7.6+commit.7338295f.Emscripten.clang"
  },
  "schemaVersion": "3.4.1",
  "updatedAt": "2021-08-01T05:35:18.381Z",
  "devdoc": {
    "kind": "dev",
    "methods": {},
    "version": 1
  },
  "userdoc": {
    "kind": "user",
    "methods": {},
    "version": 1
  }
}