{
  "contractName": "ISAFactory",
  "abi": [
    {
      "inputs": [
        {
          "internalType": "uint256",
          "name": "",
          "type": "uint256"
        }
      ],
      "name": "deployedISAs",
      "outputs": [
        {
          "internalType": "address",
          "name": "",
          "type": "address"
        }
      ],
      "stateMutability": "view",
      "type": "function",
      "constant": true
    },
    {
      "inputs": [
        {
          "internalType": "contract ISuperfluid",
          "name": "host",
          "type": "address"
        },
        {
          "internalType": "contract IConstantFlowAgreementV1",
          "name": "cfa",
          "type": "address"
        },
        {
          "internalType": "contract ISuperToken",
          "name": "acceptedToken",
          "type": "address"
        },
        {
          "internalType": "address payable",
          "name": "student",
          "type": "address"
        },
        {
          "internalType": "address payable",
          "name": "lender",
          "type": "address"
        },
        {
          "internalType": "address payable",
          "name": "institute",
          "type": "address"
        },
        {
          "internalType": "int96",
          "name": "thresholdSalary",
          "type": "int96"
        },
        {
          "internalType": "uint256",
          "name": "totalTime",
          "type": "uint256"
        },
        {
          "internalType": "int96",
          "name": "rate",
          "type": "int96"
        }
      ],
      "name": "createISA",
      "outputs": [],
      "stateMutability": "nonpayable",
      "type": "function"
    },
    {
      "inputs": [],
      "name": "getDeployedISAs",
      "outputs": [
        {
          "internalType": "address[]",
          "name": "",
          "type": "address[]"
        }
      ],
      "stateMutability": "view",
      "type": "function",
      "constant": true
    }
  ],
  "bytecode": "0x608060405234801561001057600080fd5b506144c3806100206000396000f3fe608060405234801561001057600080fd5b50600436106100415760003560e01c806338302b55146100465780634a16e0c1146100b55780636e06738e146100ee575b600080fd5b6100b3600480360361012081101561005d57600080fd5b506001600160a01b038135811691602081013582169160408201358116916060810135821691608082013581169160a08101359091169060c0810135600b90810b9160e08101359161010090910135900b610146565b005b6100d2600480360360208110156100cb57600080fd5b50356102ac565b604080516001600160a01b039092168252519081900360200190f35b6100f66102d6565b60408051602080825283518183015283519192839290830191858101910280838360005b8381101561013257818101518382015260200161011a565b505050509050019250505060405180910390f35b6001600160a01b03891661015657fe5b6001600160a01b03881661016657fe5b6001600160a01b03871661017657fe5b6001600160a01b03861661018657fe5b6001600160a01b03851661019657fe5b600a81600b0b1380156101ac5750605081600b0b125b6101b257fe5b6000821180156101c657506303c267008211155b6101cc57fe5b60008989898989898989896040516101e390610338565b6001600160a01b03998a168152978916602089015295881660408089019190915294881660608801529287166080870152951660a0850152600b94850b60c085015260e0840152920b61010082015290519081900361012001906000f080158015610252573d6000803e3d6000fd5b50600080546001810182559080527f290decd9548b62a8d60345a988386fc84ba6bc95484008f6362f93160ef3e5630180546001600160a01b0319166001600160a01b039290921691909117905550505050505050505050565b600081815481106102bc57600080fd5b6000918252602090912001546001600160a01b0316905081565b6060600080548060200260200160405190810160405280929190818152602001828054801561032e57602002820191906000526020600020905b81546001600160a01b03168152600190910190602001808311610310575b5050505050905090565b614148806103468339019056fe60806040523480156200001157600080fd5b50604051620041483803806200414883398181016040526101208110156200003857600080fd5b508051602082015160408301516060840151608085015160a086015160c087015160e0880151610100909801519697959694959394929391929091906001600160a01b0389166200008557fe5b6001600160a01b0388166200009657fe5b6001600160a01b038716620000a757fe5b6001600160a01b038616620000b857fe5b6001600160a01b038516620000c957fe5b600a81600b0b138015620000e05750605081600b0b125b620000e757fe5b600082118015620000fc57506303c267008211155b6200010357fe5b600080546001600160a01b03199081166001600160a01b038c8116919091178084556001805484168d84161790556002805484168c84161790556003805484168b84161790556004805484168a8416178155600580548416600160a01b6001600160601b03600b8a810b821692909202929092179096168b861617909155600780546001600160601b031916958a900b9091169490941760ff60601b1916909355600a8490556009869055604080516315a722b960e31b815264150000000194810185905290519394919092169263ad3915c892602480820193929182900301818387803b158015620001f557600080fd5b505af11580156200020a573d6000803e3d6000fd5b5050505050505050505050505050613f2080620002286000396000f3fe6080604052600436106100f75760003560e01c806355cf2afe1161008a578063884d1f4011610059578063884d1f40146108ef578063ab0921a3146109da578063d86ed3e51461033d578063ea26617814610a0457610248565b806355cf2afe1461074e5780635e3c3274146107885780635f9e7d77146107d85780637f002ffe146108c357610248565b806330d9c915116100c657806330d9c915146104ed5780633ccfd60b146105d857806343820520146105e057806353c11f991461061357610248565b80630c3f6acf1461024d57806312424e3f146102e95780632163885a146102fe578063230dbd291461033d57610248565b36610248576004546001600160a01b0316331461020057600754600160601b900460ff166101565760405162461bcd60e51b8152600401808060200182810382526023815260200180613ec86023913960400191505060405180910390fd5b60085434146101ac576040805162461bcd60e51b815260206004820152601860248201527f4e6f74204578616374206d6f656e792050726f76696465640000000000000000604482015290519081900360640190fd5b6004546008546040516001600160a01b039092169181156108fc0291906000818181858888f193505050501580156101e8573d6000803e3d6000fd5b50600480546001600160a01b03191633179055610246565b34670de0b6b3a7640000146102465760405162461bcd60e51b8152600401808060200182810382526029815260200180613e4c6029913960400191505060405180910390fd5b005b600080fd5b34801561025957600080fd5b50610262610a44565b604080519e8f5260208f019d909d526001600160a01b039b8c168e8e0152998b1660608e0152600b98890b60808e015296880b60a08d015294870b60c08c015292860b60e08b0152940b610100890152929094166101208701526101408601919091529115156101608501526101808401919091526101a083015251908190036101c00190f35b3480156102f557600080fd5b50610246610dbf565b34801561030a57600080fd5b50610313610e2f565b604080519485526020850193909352600b91820b84840152900b6060830152519081900360800190f35b34801561034957600080fd5b50610478600480360360c081101561036057600080fd5b6001600160a01b03823581169260208101359091169160408201359190810190608081016060820135600160201b81111561039a57600080fd5b8201836020820111156103ac57600080fd5b803590602001918460018302840111600160201b831117156103cd57600080fd5b919390929091602081019035600160201b8111156103ea57600080fd5b8201836020820111156103fc57600080fd5b803590602001918460018302840111600160201b8311171561041d57600080fd5b919390929091602081019035600160201b81111561043a57600080fd5b82018360208201111561044c57600080fd5b803590602001918460018302840111600160201b8311171561046d57600080fd5b509092509050610e4f565b6040805160208082528351818301528351919283929083019185019080838360005b838110156104b257818101518382015260200161049a565b50505050905090810190601f1680156104df5780820380516001836020036101000a031916815260200191505b509250505060405180910390f35b3480156104f957600080fd5b50610478600480360360a081101561051057600080fd5b6001600160a01b03823581169260208101359091169160408201359190810190608081016060820135600160201b81111561054a57600080fd5b82018360208201111561055c57600080fd5b803590602001918460018302840111600160201b8311171561057d57600080fd5b919390929091602081019035600160201b81111561059a57600080fd5b8201836020820111156105ac57600080fd5b803590602001918460018302840111600160201b831117156105cd57600080fd5b509092509050610f80565b610246610fb9565b3480156105ec57600080fd5b506102466004803603602081101561060357600080fd5b50356001600160a01b0316611090565b34801561061f57600080fd5b50610478600480360360c081101561063657600080fd5b6001600160a01b03823581169260208101359091169160408201359190810190608081016060820135600160201b81111561067057600080fd5b82018360208201111561068257600080fd5b803590602001918460018302840111600160201b831117156106a357600080fd5b919390929091602081019035600160201b8111156106c057600080fd5b8201836020820111156106d257600080fd5b803590602001918460018302840111600160201b831117156106f357600080fd5b919390929091602081019035600160201b81111561071057600080fd5b82018360208201111561072257600080fd5b803590602001918460018302840111600160201b8311171561074357600080fd5b50909250905061191b565b34801561075a57600080fd5b506107636119f6565b60408051600b94850b815292840b6020840152920b8183015290519081900360600190f35b34801561079457600080fd5b5061079d611ba8565b60408051600b96870b81529490950b60208501526001600160a01b039092168385015215156060830152608082015290519081900360a00190f35b3480156107e457600080fd5b50610478600480360360a08110156107fb57600080fd5b6001600160a01b03823581169260208101359091169160408201359190810190608081016060820135600160201b81111561083557600080fd5b82018360208201111561084757600080fd5b803590602001918460018302840111600160201b8311171561086857600080fd5b919390929091602081019035600160201b81111561088557600080fd5b82018360208201111561089757600080fd5b803590602001918460018302840111600160201b831117156108b857600080fd5b509092509050611be1565b3480156108cf57600080fd5b50610246600480360360208110156108e657600080fd5b50351515611c1a565b3480156108fb57600080fd5b50610478600480360360a081101561091257600080fd5b6001600160a01b03823581169260208101359091169160408201359190810190608081016060820135600160201b81111561094c57600080fd5b82018360208201111561095e57600080fd5b803590602001918460018302840111600160201b8311171561097f57600080fd5b919390929091602081019035600160201b81111561099c57600080fd5b8201836020820111156109ae57600080fd5b803590602001918460018302840111600160201b831117156109cf57600080fd5b509092509050611c81565b3480156109e657600080fd5b50610246600480360360208110156109fd57600080fd5b5035611cba565b348015610a1057600080fd5b50610a19611d17565b604080516001600160a01b039485168152928416602084015292168183015290519081900360600190f35b60008060008060008060008060008060008060008060006001600160a01b0316600360009054906101000a90046001600160a01b03166001600160a01b031614610daf5760015460025460035460408051631cd43d1160e31b81526001600160a01b039384166004820152306024820152918316604483015251919092169163e6a1e888916064808301926080929190829003018186803b158015610ae857600080fd5b505afa158015610afc573d6000803e3d6000fd5b505050506040513d6080811015610b1257600080fd5b8101908080519060200190929190805190602001909291908051906020019092919080519060200190929190505050905050809b50819f505050600160009054906101000a90046001600160a01b03166001600160a01b031663e6a1e888600260009054906101000a90046001600160a01b031630600460009054906101000a90046001600160a01b03166040518463ffffffff1660e01b815260040180846001600160a01b03168152602001836001600160a01b03168152602001826001600160a01b03168152602001935050505060806040518083038186803b158015610bfa57600080fd5b505afa158015610c0e573d6000803e3d6000fd5b505050506040513d6080811015610c2457600080fd5b8101908080519060200190929190805190602001909291908051906020019092919080519060200190929190505050905050809a50819e505050600160009054906101000a90046001600160a01b03166001600160a01b031663e8e7e2d1600260009054906101000a90046001600160a01b0316306040518363ffffffff1660e01b815260040180836001600160a01b03168152602001826001600160a01b031681526020019250505060206040518083038186803b158015610ce657600080fd5b505afa158015610cfa573d6000803e3d6000fd5b505050506040513d6020811015610d1057600080fd5b81019080805190602001909291905050509750600360009054906101000a90046001600160a01b03169b50600460009054906101000a90046001600160a01b03169a50600560149054906101000a9004600b0b9650600760009054906101000a9004600b0b9550600560009054906101000a90046001600160a01b031694504793506007600c9054906101000a900460ff1692506009549150600a5490505b909192939495969798999a9b9c9d565b6003546001600160a01b03163314610e085760405162461bcd60e51b8152600401808060200182810382526023815260200180613dd76023913960400191505060405180910390fd5b6005546001600160a01b03166000908152600b60205260409020805460ff19166001179055565b600954600a5460065491929091600160601b8104600b90810b9291900b90565b60608989610e5c82611d34565b610ead576040805162461bcd60e51b815260206004820152601760248201527f4953413a206e6f7420616363657074656420746f6b656e000000000000000000604482015290519081900360640190fd5b610eb681611d48565b610f07576040805162461bcd60e51b815260206004820152601960248201527f4953413a206f6e6c7920434641763120737570706f7274656400000000000000604482015290519081900360640190fd5b6000546001600160a01b03163314610f66576040805162461bcd60e51b815260206004820152601a60248201527f4953413a20737570706f7274206f6e6c79206f6e6520686f7374000000000000604482015290519081900360640190fd5b610f708585611dd7565b9c9b505050505050505050505050565b606060405162461bcd60e51b815260040180806020018281038252602f815260200180613e99602f913960400191505060405180910390fd5b6005546001600160a01b031633146110025760405162461bcd60e51b8152600401808060200182810382526023815260200180613dfa6023913960400191505060405180910390fd5b336000908152600b602052604090205460ff166110505760405162461bcd60e51b8152600401808060200182810382526024815260200180613e756024913960400191505060405180910390fd5b6005546040516001600160a01b0390911690600090670de0b6b3a76400009082818181858883f1935050505015801561108d573d6000803e3d6000fd5b50565b6004546001600160a01b031633146110ef576040805162461bcd60e51b815260206004820152601d60248201527f4f6e6c79206c656e6465722063616e2073656c6c207468697320495341000000604482015290519081900360640190fd5b6003546004546001600160a01b0390811691161415611155576040805162461bcd60e51b815260206004820152601760248201527f53747564656e742063616e2774206265206c656e646572000000000000000000604482015290519081900360640190fd5b6001600160a01b0381166111b0576040805162461bcd60e51b815260206004820152601a60248201527f4e6577206c656e646572206973207a65726f2061646472657373000000000000604482015290519081900360640190fd5b60005460408051631e51d6a760e11b81526001600160a01b03848116600483015291519190921691633ca3ad4e916024808301926020929190829003018186803b1580156111fd57600080fd5b505afa158015611211573d6000803e3d6000fd5b505050506040513d602081101561122757600080fd5b50511561127b576040805162461bcd60e51b815260206004820181905260248201527f4e6577206c656e6465722063616e206e6f742062652061207375706572417070604482015290519081900360640190fd5b6004546001600160a01b03828116911614156112965761108d565b61129e613caf565b156118c1576001546002546004805460408051631cd43d1160e31b81526001600160a01b03948516938101939093523060248401529083166044830152516000938493169163e6a1e888916064808301926080929190829003018186803b15801561130857600080fd5b505afa15801561131c573d6000803e3d6000fd5b505050506040513d608081101561133257600080fd5b508051602091820151600a805442849003019055600080546001546002546004546040805186815298890190529598509396506001600160a01b03918216956339255d5b9591831694635a5999e360e11b949084169330931691905060405160240180856001600160a01b03168152602001846001600160a01b03168152602001836001600160a01b0316815260200180602001828103825283818151815260200191508051906020019080838360005b838110156113fb5781810151838201526020016113e3565b50505050905090810190601f1680156114285780820380516001836020036101000a031916815260200191505b5060408051601f198184030181529181526020820180516001600160e01b03166001600160e01b03199a8b16178152905160e08c901b90991689526001600160a01b038a1660048a01908152606060248b01908152835160648c01528351939a919950975060448101965060840194509250905080838360005b838110156114ba5781810151838201526020016114a2565b50505050905090810190601f1680156114e75780820380516001836020036101000a031916815260200191505b508381038252600281526020018061060f60f31b815250602001945050505050600060405180830381600087803b15801561152157600080fd5b505af1158015611535573d6000803e3d6000fd5b505050506040513d6000823e601f3d908101601f19168201604052602081101561155e57600080fd5b8101908080516040519392919084600160201b82111561157d57600080fd5b90830190602082018581111561159257600080fd5b8251600160201b8111828201881017156115ab57600080fd5b82525081516020918201929091019080838360005b838110156115d85781810151838201526020016115c0565b50505050905090810190601f1680156116055780820380516001836020036101000a031916815260200191505b5060008054600154600254838552602085016040526001600160a01b0392831698506339255d5b9750908216955063317e182f60e11b9450169189918891905060405160240180856001600160a01b03168152602001846001600160a01b0316815260200183600b0b815260200180602001828103825283818151815260200191508051906020019080838360005b838110156116ac578181015183820152602001611694565b50505050905090810190601f1680156116d95780820380516001836020036101000a031916815260200191505b5060408051601f198184030181529181526020820180516001600160e01b03166001600160e01b03199a8b16178152905160e08c901b90991689526001600160a01b038a1660048a01908152606060248b01908152835160648c01528351939a919950975060448101965060840194509250905080838360005b8381101561176b578181015183820152602001611753565b50505050905090810190601f1680156117985780820380516001836020036101000a031916815260200191505b508381038252600281526020018061060f60f31b815250602001945050505050600060405180830381600087803b1580156117d257600080fd5b505af11580156117e6573d6000803e3d6000fd5b505050506040513d6000823e601f3d908101601f19168201604052602081101561180f57600080fd5b8101908080516040519392919084600160201b82111561182e57600080fd5b90830190602082018581111561184357600080fd5b8251600160201b81118282018810171561185c57600080fd5b82525081516020918201929091019080838360005b83811015611889578181015183820152602001611871565b50505050905090810190601f1680156118b65780820380516001836020036101000a031916815260200191505b506040525050505050505b600480546001600160a01b0319166001600160a01b03838116919091179182905560408051929091168252517fe0fabbc22e4fbd27b3cb2f4255174dabaa5fea3871d02a1ccc13aae4028c02a8916020908290030190a150565b6000546060906001600160a01b0316331461197d576040805162461bcd60e51b815260206004820152601a60248201527f4953413a20737570706f7274206f6e6c79206f6e6520686f7374000000000000604482015290519081900360640190fd5b6119868a611d34565b1580611998575061199689611d48565b155b156119dc5782828080601f0160208091040260200160405190810160405280939291908181526020018383808284376000920191909152509293506119e992505050565b6119e68383611dd7565b90505b9998505050505050505050565b60015460025460035460408051631cd43d1160e31b81526001600160a01b0393841660048201523060248201529183166044830152516000938493849391169163e6a1e88891606480820192608092909190829003018186803b158015611a5c57600080fd5b505afa158015611a70573d6000803e3d6000fd5b505050506040513d6080811015611a8657600080fd5b50602001516001546002546004805460408051631cd43d1160e31b81526001600160a01b039485169381019390935230602484015290831660448301525193965091169163e6a1e88891606480820192608092909190829003018186803b158015611af057600080fd5b505afa158015611b04573d6000803e3d6000fd5b505050506040513d6080811015611b1a57600080fd5b506020908101516001546002546040805163e8e7e2d160e01b81526001600160a01b039283166004820152306024820152905193965091169263e8e7e2d192604480840193829003018186803b158015611b7357600080fd5b505afa158015611b87573d6000803e3d6000fd5b505050506040513d6020811015611b9d57600080fd5b505192939192919050565b600554600754600254600854600160a01b909304600b90810b949083900b936001600160a01b0390921692600160601b900460ff169190565b606060405162461bcd60e51b8152600401808060200182810382526033815260200180613da46033913960400191505060405180910390fd5b6004546001600160a01b03163314611c635760405162461bcd60e51b8152600401808060200182810382526021815260200180613d836021913960400191505060405180910390fd5b60078054911515600160601b0260ff60601b19909216919091179055565b606060405162461bcd60e51b815260040180806020018281038252602f815260200180613e1d602f913960400191505060405180910390fd5b6004546001600160a01b03163314611d035760405162461bcd60e51b8152600401808060200182810382526021815260200180613d836021913960400191505060405180910390fd5b806008541415611d125761108d565b600855565b6003546004546005546001600160a01b0392831693918316921690565b6002546001600160a01b0390811691161490565b60007fa9214cc96615e0085d3bb077758db69497dc2dce3b2b1e97bc93c3d18d83efd3826001600160a01b0316637730599e6040518163ffffffff1660e01b815260040160206040518083038186803b158015611da457600080fd5b505afa158015611db8573d6000803e3d6000fd5b505050506040513d6020811015611dce57600080fd5b50511492915050565b606082828080601f01602080910402602001604051908101604052809392919081815260200183838082843760009201829052506001546002546040805163e8e7e2d160e01b81526001600160a01b039283166004820152306024820152905197985092969116945063e8e7e2d1935060448083019350602092829003018186803b158015611e6557600080fd5b505afa158015611e79573d6000803e3d6000fd5b505050506040513d6020811015611e8f57600080fd5b505160015460025460035460408051631cd43d1160e31b81526001600160a01b039384166004820152306024820152918316604483015251939450600093919092169163e6a1e888916064808301926080929190829003018186803b158015611ef757600080fd5b505afa158015611f0b573d6000803e3d6000fd5b505050506040513d6080811015611f2157600080fd5b50602001516001546002546004805460408051631cd43d1160e31b81526001600160a01b03948516938101939093523060248401529083166044830152519394506000938493929092169163e6a1e88891606480820192608092909190829003018186803b158015611f9257600080fd5b505afa158015611fa6573d6000803e3d6000fd5b505050506040513d6080811015611fbc57600080fd5b508051602090910151909250905082810184840182016000600b82900b1215611fe3576000035b600754600b90810b810b9082900b121561202657600680546001600160c01b031916600160601b6bffffffffffffffffffffffff600b85900b1602179055612095565b60055460068054600160a01b909204600b90810b606485830b0502810b6bffffffffffffffffffffffff9081166bffffffffffffffffffffffff199094169390931780820b850390910b909216600160601b026bffffffffffffffffffffffff60601b19929092169190911790555b6000600b82900b1361289757600080546001546002546003546040805186815260208101918290526001600160a01b0393841660448201818152306064840181905294861660848401819052608060a48501908152845160c486018190529988169a634329d2939a9890991698635a5999e360e11b98949796929594919260e486019290918190849084905b83811015612139578181015183820152602001612121565b50505050905090810190601f1680156121665780820380516001836020036101000a031916815260200191505b5095505050505050604051602081830303815290604052906001600160e01b0319166020820180516001600160e01b0383818316178352505050508a6040518463ffffffff1660e01b815260040180846001600160a01b03168152602001806020018060200180602001848103845286818151815260200191508051906020019080838360005b838110156122055781810151838201526020016121ed565b50505050905090810190601f1680156122325780820380516001836020036101000a031916815260200191505b508481038352600281526020018061060f60f31b815250602001848103825285818151815260200191508051906020019080838360005b83811015612281578181015183820152602001612269565b50505050905090810190601f1680156122ae5780820380516001836020036101000a031916815260200191505b509650505050505050600060405180830381600087803b1580156122d157600080fd5b505af11580156122e5573d6000803e3d6000fd5b505050506040513d6000823e601f3d908101601f19168201604090815281101561230e57600080fd5b8101908080516040519392919084600160201b82111561232d57600080fd5b90830190602082018581111561234257600080fd5b8251600160201b81118282018810171561235b57600080fd5b82525081516020918201929091019080838360005b83811015612388578181015183820152602001612370565b50505050905090810190601f1680156123b55780820380516001836020036101000a031916815260200191505b5060405260200180516040519392919084600160201b8211156123d757600080fd5b9083019060208201858111156123ec57600080fd5b8251600160201b81118282018810171561240557600080fd5b82525081516020918201929091019080838360005b8381101561243257818101518382015260200161241a565b50505050905090810190601f16801561245f5780820380516001836020036101000a031916815260200191505b506040525050505080975050612473613caf565b1561248457600a8054428690030190555b61248c613caf565b1561289257600080546001546002546004546001600160a01b0393841694634329d2939493841693635a5999e360e11b938116923092911690805b506040519080825280601f01601f1916602001820160405280156124f2576020820181803683370190505b5060405160240180856001600160a01b03168152602001846001600160a01b03168152602001836001600160a01b0316815260200180602001828103825283818151815260200191508051906020019080838360005b83811015612560578181015183820152602001612548565b50505050905090810190601f16801561258d5780820380516001836020036101000a031916815260200191505b5095505050505050604051602081830303815290604052906001600160e01b0319166020820180516001600160e01b0383818316178352505050508a6040518463ffffffff1660e01b815260040180846001600160a01b03168152602001806020018060200180602001848103845286818151815260200191508051906020019080838360005b8381101561262c578181015183820152602001612614565b50505050905090810190601f1680156126595780820380516001836020036101000a031916815260200191505b508481038352600281526020018061060f60f31b815250602001848103825285818151815260200191508051906020019080838360005b838110156126a8578181015183820152602001612690565b50505050905090810190601f1680156126d55780820380516001836020036101000a031916815260200191505b509650505050505050600060405180830381600087803b1580156126f857600080fd5b505af115801561270c573d6000803e3d6000fd5b505050506040513d6000823e601f3d908101601f19168201604090815281101561273557600080fd5b8101908080516040519392919084600160201b82111561275457600080fd5b90830190602082018581111561276957600080fd5b8251600160201b81118282018810171561278257600080fd5b82525081516020918201929091019080838360005b838110156127af578181015183820152602001612797565b50505050905090810190601f1680156127dc5780820380516001836020036101000a031916815260200191505b5060405260200180516040519392919084600160201b8211156127fe57600080fd5b90830190602082018581111561281357600080fd5b8251600160201b81118282018810171561282c57600080fd5b82525081516020918201929091019080838360005b83811015612859578181015183820152602001612841565b50505050905090810190601f1680156128865780820380516001836020036101000a031916815260200191505b50604052509299505050505b613ca3565b600b82900b156134c7576000805460015460025460035460065460408051878152602081019091526001600160a01b0395861696634329d29396958616956328104d3160e11b958116941692600160601b9004600b0b91905060405160240180856001600160a01b03168152602001846001600160a01b0316815260200183600b0b815260200180602001828103825283818151815260200191508051906020019080838360005b8381101561295757818101518382015260200161293f565b50505050905090810190601f1680156129845780820380516001836020036101000a031916815260200191505b5095505050505050604051602081830303815290604052906001600160e01b0319166020820180516001600160e01b0383818316178352505050508a6040518463ffffffff1660e01b815260040180846001600160a01b03168152602001806020018060200180602001848103845286818151815260200191508051906020019080838360005b83811015612a23578181015183820152602001612a0b565b50505050905090810190601f168015612a505780820380516001836020036101000a031916815260200191505b508481038352600281526020018061060f60f31b815250602001848103825285818151815260200191508051906020019080838360005b83811015612a9f578181015183820152602001612a87565b50505050905090810190601f168015612acc5780820380516001836020036101000a031916815260200191505b509650505050505050600060405180830381600087803b158015612aef57600080fd5b505af1158015612b03573d6000803e3d6000fd5b505050506040513d6000823e601f3d908101601f191682016040908152811015612b2c57600080fd5b8101908080516040519392919084600160201b821115612b4b57600080fd5b908301906020820185811115612b6057600080fd5b8251600160201b811182820188101715612b7957600080fd5b82525081516020918201929091019080838360005b83811015612ba6578181015183820152602001612b8e565b50505050905090810190601f168015612bd35780820380516001836020036101000a031916815260200191505b5060405260200180516040519392919084600160201b821115612bf557600080fd5b908301906020820185811115612c0a57600080fd5b8251600160201b811182820188101715612c2357600080fd5b82525081516020918201929091019080838360005b83811015612c50578181015183820152602001612c38565b50505050905090810190601f168015612c7d5780820380516001836020036101000a031916815260200191505b5060405250506007549299505050600b90810b810b9082900b131561347557612ca4613caf565b1561308f576000805460015460025460045460065460408051878152602081019091526001600160a01b0395861696634329d29396958616956328104d3160e11b958116941692600b0b91905060405160240180856001600160a01b03168152602001846001600160a01b0316815260200183600b0b815260200180602001828103825283818151815260200191508051906020019080838360005b83811015612d58578181015183820152602001612d40565b50505050905090810190601f168015612d855780820380516001836020036101000a031916815260200191505b5095505050505050604051602081830303815290604052906001600160e01b0319166020820180516001600160e01b0383818316178352505050508a6040518463ffffffff1660e01b815260040180846001600160a01b03168152602001806020018060200180602001848103845286818151815260200191508051906020019080838360005b83811015612e24578181015183820152602001612e0c565b50505050905090810190601f168015612e515780820380516001836020036101000a031916815260200191505b508481038352600281526020018061060f60f31b815250602001848103825285818151815260200191508051906020019080838360005b83811015612ea0578181015183820152602001612e88565b50505050905090810190601f168015612ecd5780820380516001836020036101000a031916815260200191505b509650505050505050600060405180830381600087803b158015612ef057600080fd5b505af1158015612f04573d6000803e3d6000fd5b505050506040513d6000823e601f3d908101601f191682016040908152811015612f2d57600080fd5b8101908080516040519392919084600160201b821115612f4c57600080fd5b908301906020820185811115612f6157600080fd5b8251600160201b811182820188101715612f7a57600080fd5b82525081516020918201929091019080838360005b83811015612fa7578181015183820152602001612f8f565b50505050905090810190601f168015612fd45780820380516001836020036101000a031916815260200191505b5060405260200180516040519392919084600160201b821115612ff657600080fd5b90830190602082018581111561300b57600080fd5b8251600160201b81118282018810171561302457600080fd5b82525081516020918201929091019080838360005b83811015613051578181015183820152602001613039565b50505050905090810190601f16801561307e5780820380516001836020036101000a031916815260200191505b506040525050505080975050613470565b6000805460015460025460045460065460408051878152602081019091526001600160a01b0395861696634329d293969586169563317e182f60e11b958116941692600b0b91905060405160240180856001600160a01b03168152602001846001600160a01b0316815260200183600b0b815260200180602001828103825283818151815260200191508051906020019080838360005b8381101561313e578181015183820152602001613126565b50505050905090810190601f16801561316b5780820380516001836020036101000a031916815260200191505b5095505050505050604051602081830303815290604052906001600160e01b0319166020820180516001600160e01b0383818316178352505050508a6040518463ffffffff1660e01b815260040180846001600160a01b03168152602001806020018060200180602001848103845286818151815260200191508051906020019080838360005b8381101561320a5781810151838201526020016131f2565b50505050905090810190601f1680156132375780820380516001836020036101000a031916815260200191505b508481038352600281526020018061060f60f31b815250602001848103825285818151815260200191508051906020019080838360005b8381101561328657818101518382015260200161326e565b50505050905090810190601f1680156132b35780820380516001836020036101000a031916815260200191505b509650505050505050600060405180830381600087803b1580156132d657600080fd5b505af11580156132ea573d6000803e3d6000fd5b505050506040513d6000823e601f3d908101601f19168201604090815281101561331357600080fd5b8101908080516040519392919084600160201b82111561333257600080fd5b90830190602082018581111561334757600080fd5b8251600160201b81118282018810171561336057600080fd5b82525081516020918201929091019080838360005b8381101561338d578181015183820152602001613375565b50505050905090810190601f1680156133ba5780820380516001836020036101000a031916815260200191505b5060405260200180516040519392919084600160201b8211156133dc57600080fd5b9083019060208201858111156133f157600080fd5b8251600160201b81118282018810171561340a57600080fd5b82525081516020918201929091019080838360005b8381101561343757818101518382015260200161341f565b50505050905090810190601f1680156134645780820380516001836020036101000a031916815260200191505b50604052509299505050505b612892565b61347d613caf565b1561289257600a805442869003019055600080546001546002546004546001600160a01b0393841694634329d2939493841693635a5999e360e11b938116923092911690806124c7565b6000805460015460025460035460065460408051878152602081019091526001600160a01b0395861696634329d293969586169563317e182f60e11b958116941692600160601b9004600b0b91905060405160240180856001600160a01b03168152602001846001600160a01b0316815260200183600b0b815260200180602001828103825283818151815260200191508051906020019080838360005b8381101561357d578181015183820152602001613565565b50505050905090810190601f1680156135aa5780820380516001836020036101000a031916815260200191505b5095505050505050604051602081830303815290604052906001600160e01b0319166020820180516001600160e01b0383818316178352505050508a6040518463ffffffff1660e01b815260040180846001600160a01b03168152602001806020018060200180602001848103845286818151815260200191508051906020019080838360005b83811015613649578181015183820152602001613631565b50505050905090810190601f1680156136765780820380516001836020036101000a031916815260200191505b508481038352600281526020018061060f60f31b815250602001848103825285818151815260200191508051906020019080838360005b838110156136c55781810151838201526020016136ad565b50505050905090810190601f1680156136f25780820380516001836020036101000a031916815260200191505b509650505050505050600060405180830381600087803b15801561371557600080fd5b505af1158015613729573d6000803e3d6000fd5b505050506040513d6000823e601f3d908101601f19168201604090815281101561375257600080fd5b8101908080516040519392919084600160201b82111561377157600080fd5b90830190602082018581111561378657600080fd5b8251600160201b81118282018810171561379f57600080fd5b82525081516020918201929091019080838360005b838110156137cc5781810151838201526020016137b4565b50505050905090810190601f1680156137f95780820380516001836020036101000a031916815260200191505b5060405260200180516040519392919084600160201b82111561381b57600080fd5b90830190602082018581111561383057600080fd5b8251600160201b81118282018810171561384957600080fd5b82525081516020918201929091019080838360005b8381101561387657818101518382015260200161385e565b50505050905090810190601f1680156138a35780820380516001836020036101000a031916815260200191505b5060405250506007549299505050600b90810b810b9082900b1315613ca3576000805460015460025460045460065460408051878152602081019091526001600160a01b0395861696634329d293969586169563317e182f60e11b958116941692600b0b91905060405160240180856001600160a01b03168152602001846001600160a01b0316815260200183600b0b815260200180602001828103825283818151815260200191508051906020019080838360005b83811015613971578181015183820152602001613959565b50505050905090810190601f16801561399e5780820380516001836020036101000a031916815260200191505b5095505050505050604051602081830303815290604052906001600160e01b0319166020820180516001600160e01b0383818316178352505050508a6040518463ffffffff1660e01b815260040180846001600160a01b03168152602001806020018060200180602001848103845286818151815260200191508051906020019080838360005b83811015613a3d578181015183820152602001613a25565b50505050905090810190601f168015613a6a5780820380516001836020036101000a031916815260200191505b508481038352600281526020018061060f60f31b815250602001848103825285818151815260200191508051906020019080838360005b83811015613ab9578181015183820152602001613aa1565b50505050905090810190601f168015613ae65780820380516001836020036101000a031916815260200191505b509650505050505050600060405180830381600087803b158015613b0957600080fd5b505af1158015613b1d573d6000803e3d6000fd5b505050506040513d6000823e601f3d908101601f191682016040908152811015613b4657600080fd5b8101908080516040519392919084600160201b821115613b6557600080fd5b908301906020820185811115613b7a57600080fd5b8251600160201b811182820188101715613b9357600080fd5b82525081516020918201929091019080838360005b83811015613bc0578181015183820152602001613ba8565b50505050905090810190601f168015613bed5780820380516001836020036101000a031916815260200191505b5060405260200180516040519392919084600160201b821115613c0f57600080fd5b908301906020820185811115613c2457600080fd5b8251600160201b811182820188101715613c3d57600080fd5b82525081516020918201929091019080838360005b83811015613c6a578181015183820152602001613c52565b50505050905090810190601f168015613c975780820380516001836020036101000a031916815260200191505b50604052509299505050505b50505050505092915050565b6001546002546004805460408051631cd43d1160e31b81526001600160a01b03948516938101939093523060248401529083166044830152516000938493849391169163e6a1e88891606480820192608092909190829003018186803b158015613d1857600080fd5b505afa158015613d2c573d6000803e3d6000fd5b505050506040513d6080811015613d4257600080fd5b50805160209091015190925090508115613d6157600192505050613d7f565b600081600b0b1315613d7857600192505050613d7f565b6000925050505b9056fe4f6e6c79206c656e6465722063616e206d616b6520697420747261646561626c65556e737570706f727465642063616c6c6261636b202d20204265666f72652041677265656d656e74205465726d696e617465644f6e6c792053747564656e742063616e20617070726f766520496e737469747574652e4f6e6c7920496e737469747574652063616e207769746864726177206d6f6e65792121556e737570706f727465642063616c6c6261636b202d204265666f72652041677265656d656e7420757064617465644f6e6c7920312065746865722063616e2062652073656e7420746f207468697320636f6e7472616374776974686472617720796574206e6f7420617070726f7665642062792073747564656e74556e737570706f727465642063616c6c6261636b202d204265666f72652041677265656d656e7420437265617465645468697320636f6e7472616374206973206e6f7420547261646561626c65207965742ea2646970667358221220a497e89fdfbc688c362262c5561cf2eca71116a0f0a2a058fa61d0e33dec00c164736f6c63430007060033a26469706673582212206a1f7d0ea43e6fc422a76da17f1e383ea54aa64378f91d072f5497325839b0ba64736f6c63430007060033",
  "immutableReferences": {},
  "source": "//SPDX-License-Identifier: MIT\npragma solidity ^0.7.0;\n\nimport {ISA, ISuperfluid, IConstantFlowAgreementV1, ISuperToken} from \"./ISA.sol\";\n\ncontract ISAFactory {\n    address[] public deployedISAs;\n\n    function createISA(\n        ISuperfluid host,\n        IConstantFlowAgreementV1 cfa,\n        ISuperToken acceptedToken,\n        address payable student,\n        address payable lender,\n        address payable institute,\n        int96 thresholdSalary,\n        uint256 totalTime,\n        int96 rate\n    ) public {\n        assert(address(host) != address(0));\n        assert(address(cfa) != address(0));\n        assert(address(acceptedToken) != address(0));\n        assert(address(student) != address(0));\n        assert(address(lender) != address(0));\n        // Rate to lender can be between (10-80)%\n        assert(rate > 10 && rate < 80);\n        //assert(!_host.isApp(ISuperApp(student)));\n        assert(totalTime > 0 && totalTime <= 63072000);\n\n        address newISA = address(\n            new ISA(\n                host,\n                cfa,\n                acceptedToken,\n                student,\n                lender,\n                institute,\n                thresholdSalary,\n                totalTime,\n                rate\n            )\n        );\n\n        deployedISAs.push(newISA);\n    }\n\n    function getDeployedISAs() public view returns (address[] memory) {\n        return deployedISAs;\n    }\n}\n",
  "sourcePath": "/home/prix/Documents/myProjects/devfolio/ethodyssey/contracts/ISAFactory.sol",
  "compiler": {
    "name": "solc",
    "version": "0.7.6+commit.7338295f.Emscripten.clang"
  },
  "schemaVersion": "3.4.1",
  "updatedAt": "2021-08-01T12:51:26.762Z",
  "networkType": "ethereum",
  "devdoc": {
    "kind": "dev",
    "methods": {},
    "version": 1
  },
  "userdoc": {
    "kind": "user",
    "methods": {},
    "version": 1
  }
}